{
  "_format": "hh-sol-artifact-1",
  "contractName": "QuizCraftArena",
  "sourceName": "contracts/Quiz.sol",
  "abi": [
    {
      "anonymous": false,
      "inputs": [
        {
          "indexed": true,
          "internalType": "uint256",
          "name": "lobbyId",
          "type": "uint256"
        },
        {
          "indexed": false,
          "internalType": "address[]",
          "name": "leaderboard",
          "type": "address[]"
        }
      ],
      "name": "LeaderboardSet",
      "type": "event"
    },
    {
      "anonymous": false,
      "inputs": [
        {
          "indexed": true,
          "internalType": "uint256",
          "name": "lobbyId",
          "type": "uint256"
        }
      ],
      "name": "LobbyCancelled",
      "type": "event"
    },
    {
      "anonymous": false,
      "inputs": [
        {
          "indexed": true,
          "internalType": "uint256",
          "name": "lobbyId",
          "type": "uint256"
        },
        {
          "indexed": false,
          "internalType": "address",
          "name": "winner",
          "type": "address"
        },
        {
          "indexed": false,
          "internalType": "uint256",
          "name": "prize",
          "type": "uint256"
        }
      ],
      "name": "LobbyCompleted",
      "type": "event"
    },
    {
      "anonymous": false,
      "inputs": [
        {
          "indexed": true,
          "internalType": "uint256",
          "name": "lobbyId",
          "type": "uint256"
        },
        {
          "indexed": false,
          "internalType": "string",
          "name": "name",
          "type": "string"
        },
        {
          "indexed": false,
          "internalType": "string",
          "name": "category",
          "type": "string"
        },
        {
          "indexed": false,
          "internalType": "uint256",
          "name": "entryFee",
          "type": "uint256"
        },
        {
          "indexed": false,
          "internalType": "uint256",
          "name": "maxPlayers",
          "type": "uint256"
        },
        {
          "indexed": false,
          "internalType": "address",
          "name": "creator",
          "type": "address"
        }
      ],
      "name": "LobbyCreated",
      "type": "event"
    },
    {
      "anonymous": false,
      "inputs": [
        {
          "indexed": true,
          "internalType": "address",
          "name": "previousOwner",
          "type": "address"
        },
        {
          "indexed": true,
          "internalType": "address",
          "name": "newOwner",
          "type": "address"
        }
      ],
      "name": "OwnershipTransferred",
      "type": "event"
    },
    {
      "anonymous": false,
      "inputs": [
        {
          "indexed": true,
          "internalType": "uint256",
          "name": "lobbyId",
          "type": "uint256"
        },
        {
          "indexed": false,
          "internalType": "address",
          "name": "player",
          "type": "address"
        }
      ],
      "name": "PlayerJoined",
      "type": "event"
    },
    {
      "anonymous": false,
      "inputs": [
        {
          "indexed": true,
          "internalType": "uint256",
          "name": "lobbyId",
          "type": "uint256"
        },
        {
          "indexed": false,
          "internalType": "address[]",
          "name": "players",
          "type": "address[]"
        },
        {
          "indexed": false,
          "internalType": "uint256[]",
          "name": "scores",
          "type": "uint256[]"
        }
      ],
      "name": "ScoresSubmitted",
      "type": "event"
    },
    {
      "inputs": [],
      "name": "LOBBY_TIMEOUT",
      "outputs": [
        {
          "internalType": "uint256",
          "name": "",
          "type": "uint256"
        }
      ],
      "stateMutability": "view",
      "type": "function"
    },
    {
      "inputs": [
        {
          "internalType": "string",
          "name": "_name",
          "type": "string"
        },
        {
          "internalType": "string",
          "name": "_category",
          "type": "string"
        },
        {
          "internalType": "uint256",
          "name": "_entryFee",
          "type": "uint256"
        },
        {
          "internalType": "uint256",
          "name": "_maxPlayers",
          "type": "uint256"
        }
      ],
      "name": "createLobby",
      "outputs": [
        {
          "internalType": "uint256",
          "name": "",
          "type": "uint256"
        }
      ],
      "stateMutability": "nonpayable",
      "type": "function"
    },
    {
      "inputs": [
        {
          "internalType": "uint256",
          "name": "_lobbyId",
          "type": "uint256"
        },
        {
          "internalType": "address",
          "name": "_winner",
          "type": "address"
        }
      ],
      "name": "executeWinnerPayout",
      "outputs": [],
      "stateMutability": "nonpayable",
      "type": "function"
    },
    {
      "inputs": [
        {
          "internalType": "uint256",
          "name": "_lobbyId",
          "type": "uint256"
        }
      ],
      "name": "getLobbyResult",
      "outputs": [
        {
          "internalType": "enum QuizCraftArena.LobbyStatus",
          "name": "",
          "type": "uint8"
        },
        {
          "internalType": "address",
          "name": "",
          "type": "address"
        },
        {
          "internalType": "uint256",
          "name": "",
          "type": "uint256"
        }
      ],
      "stateMutability": "view",
      "type": "function"
    },
    {
      "inputs": [
        {
          "internalType": "uint256",
          "name": "_lobbyId",
          "type": "uint256"
        }
      ],
      "name": "getPlayersInLobby",
      "outputs": [
        {
          "internalType": "address[]",
          "name": "",
          "type": "address[]"
        }
      ],
      "stateMutability": "view",
      "type": "function"
    },
    {
      "inputs": [
        {
          "internalType": "uint256",
          "name": "_lobbyId",
          "type": "uint256"
        },
        {
          "internalType": "address",
          "name": "_player",
          "type": "address"
        }
      ],
      "name": "isPlayerInLobby",
      "outputs": [
        {
          "internalType": "bool",
          "name": "",
          "type": "bool"
        }
      ],
      "stateMutability": "view",
      "type": "function"
    },
    {
      "inputs": [
        {
          "internalType": "uint256",
          "name": "_lobbyId",
          "type": "uint256"
        }
      ],
      "name": "joinLobby",
      "outputs": [],
      "stateMutability": "payable",
      "type": "function"
    },
    {
      "inputs": [
        {
          "internalType": "uint256",
          "name": "",
          "type": "uint256"
        }
      ],
      "name": "leaderboardSet",
      "outputs": [
        {
          "internalType": "bool",
          "name": "",
          "type": "bool"
        }
      ],
      "stateMutability": "view",
      "type": "function"
    },
    {
      "inputs": [
        {
          "internalType": "uint256",
          "name": "",
          "type": "uint256"
        }
      ],
      "name": "lobbies",
      "outputs": [
        {
          "internalType": "uint256",
          "name": "id",
          "type": "uint256"
        },
        {
          "internalType": "string",
          "name": "name",
          "type": "string"
        },
        {
          "internalType": "string",
          "name": "category",
          "type": "string"
        },
        {
          "internalType": "uint256",
          "name": "entryFee",
          "type": "uint256"
        },
        {
          "internalType": "uint256",
          "name": "playerCount",
          "type": "uint256"
        },
        {
          "internalType": "uint256",
          "name": "maxPlayers",
          "type": "uint256"
        },
        {
          "internalType": "uint256",
          "name": "prizePool",
          "type": "uint256"
        },
        {
          "internalType": "uint256",
          "name": "createdAt",
          "type": "uint256"
        },
        {
          "internalType": "enum QuizCraftArena.LobbyStatus",
          "name": "status",
          "type": "uint8"
        },
        {
          "internalType": "enum QuizCraftArena.DistributionStatus",
          "name": "distribution",
          "type": "uint8"
        },
        {
          "internalType": "address",
          "name": "winner",
          "type": "address"
        },
        {
          "internalType": "address",
          "name": "creator",
          "type": "address"
        }
      ],
      "stateMutability": "view",
      "type": "function"
    },
    {
      "inputs": [
        {
          "internalType": "uint256",
          "name": "",
          "type": "uint256"
        },
        {
          "internalType": "uint256",
          "name": "",
          "type": "uint256"
        }
      ],
      "name": "lobbyLeaderboard",
      "outputs": [
        {
          "internalType": "address",
          "name": "",
          "type": "address"
        }
      ],
      "stateMutability": "view",
      "type": "function"
    },
    {
      "inputs": [],
      "name": "nextLobbyId",
      "outputs": [
        {
          "internalType": "uint256",
          "name": "",
          "type": "uint256"
        }
      ],
      "stateMutability": "view",
      "type": "function"
    },
    {
      "inputs": [],
      "name": "owner",
      "outputs": [
        {
          "internalType": "address",
          "name": "",
          "type": "address"
        }
      ],
      "stateMutability": "view",
      "type": "function"
    },
    {
      "inputs": [
        {
          "internalType": "uint256",
          "name": "",
          "type": "uint256"
        },
        {
          "internalType": "address",
          "name": "",
          "type": "address"
        }
      ],
      "name": "playerScores",
      "outputs": [
        {
          "internalType": "uint256",
          "name": "",
          "type": "uint256"
        }
      ],
      "stateMutability": "view",
      "type": "function"
    },
    {
      "inputs": [],
      "name": "renounceOwnership",
      "outputs": [],
      "stateMutability": "nonpayable",
      "type": "function"
    },
    {
      "inputs": [
        {
          "internalType": "address",
          "name": "newOwner",
          "type": "address"
        }
      ],
      "name": "transferOwnership",
      "outputs": [],
      "stateMutability": "nonpayable",
      "type": "function"
    },
    {
      "stateMutability": "payable",
      "type": "receive"
    }
  ],
  "bytecode": "0x60806040523480156200001157600080fd5b5060016000819055506200003a6200002e6200004060201b60201c565b6200004860201b60201c565b6200010e565b600033905090565b6000600160009054906101000a900473ffffffffffffffffffffffffffffffffffffffff16905081600160006101000a81548173ffffffffffffffffffffffffffffffffffffffff021916908373ffffffffffffffffffffffffffffffffffffffff1602179055508173ffffffffffffffffffffffffffffffffffffffff168173ffffffffffffffffffffffffffffffffffffffff167f8be0079c531659141344cd1fd0a4f28419497f9722a3daafe3b4186f6b6457e060405160405180910390a35050565b612ae0806200011e6000396000f3fe6080604052600436106100eb5760003560e01c8063869bb51b1161008a578063c309b1e311610059578063c309b1e31461037e578063d85cdcb6146103a9578063e9173b3a146103e6578063f2fde38b146104025761012b565b8063869bb51b146102ac5780638da5cb5b146102e95780638e9be6f614610314578063a16353bf146103535761012b565b8063559ab8cc116100c6578063559ab8cc146101d35780636e8fb4c614610210578063715018a614610258578063729f767d1461026f5761012b565b8062200e27146101305780630cc46ba71461016d5780632a14ebb4146101965761012b565b3661012b576040517f08c379a00000000000000000000000000000000000000000000000000000000081526004016101229061182e565b60405180910390fd5b600080fd5b34801561013c57600080fd5b50610157600480360381019061015291906118f6565b61042b565b6040516101649190611945565b60405180910390f35b34801561017957600080fd5b50610194600480360381019061018f91906118f6565b610450565b005b3480156101a257600080fd5b506101bd60048036038101906101b89190611aa6565b610910565b6040516101ca9190611945565b60405180910390f35b3480156101df57600080fd5b506101fa60048036038101906101f591906118f6565b610b9e565b6040516102079190611b60565b60405180910390f35b34801561021c57600080fd5b5061023760048036038101906102329190611b7b565b610c64565b60405161024f9c9b9a99989796959493929190611ced565b60405180910390f35b34801561026457600080fd5b5061026d610e2e565b005b34801561027b57600080fd5b5061029660048036038101906102919190611b7b565b610e42565b6040516102a39190611b60565b60405180910390f35b3480156102b857600080fd5b506102d360048036038101906102ce9190611db5565b610e62565b6040516102e09190611df5565b60405180910390f35b3480156102f557600080fd5b506102fe610eb0565b60405161030b9190611df5565b60405180910390f35b34801561032057600080fd5b5061033b60048036038101906103369190611b7b565b610eda565b60405161034a93929190611e10565b60405180910390f35b34801561035f57600080fd5b5061036861101a565b6040516103759190611945565b60405180910390f35b34801561038a57600080fd5b50610393611020565b6040516103a09190611945565b60405180910390f35b3480156103b557600080fd5b506103d060048036038101906103cb9190611b7b565b611026565b6040516103dd9190611f05565b60405180910390f35b61040060048036038101906103fb9190611b7b565b611110565b005b34801561040e57600080fd5b5061042960048036038101906104249190611f27565b611504565b005b6003602052816000526040600020602052806000526040600020600091509150505481565b610458611588565b81600654811061049d576040517f08c379a000000000000000000000000000000000000000000000000000000000815260040161049490611fa0565b60405180910390fd5b8260026000828152602001908152602001600020600b0160009054906101000a900473ffffffffffffffffffffffffffffffffffffffff1673ffffffffffffffffffffffffffffffffffffffff163373ffffffffffffffffffffffffffffffffffffffff1614610542576040517f08c379a000000000000000000000000000000000000000000000000000000000815260040161053990612032565b60405180910390fd5b60006002600086815260200190815260200160002090506000600181111561056d5761056c611c1f565b5b8160080160019054906101000a900460ff16600181111561059157610590611c1f565b5b146105d1576040517f08c379a00000000000000000000000000000000000000000000000000000000081526004016105c89061209e565b60405180910390fd5b600260048111156105e5576105e4611c1f565b5b8160080160009054906101000a900460ff16600481111561060957610608611c1f565b5b14610649576040517f08c379a00000000000000000000000000000000000000000000000000000000081526004016106409061210a565b60405180910390fd5b6106538585610b9e565b610692576040517f08c379a000000000000000000000000000000000000000000000000000000000815260040161068990612176565b60405180910390fd5b600260048111156106a6576106a5611c1f565b5b8160080160009054906101000a900460ff1660048111156106ca576106c9611c1f565b5b14806106e7575061012c81600701546106e391906121c5565b4210155b610726576040517f08c379a000000000000000000000000000000000000000000000000000000000815260040161071d90612267565b60405180910390fd5b60038160080160006101000a81548160ff0219169083600481111561074e5761074d611c1f565b5b02179055508381600a0160006101000a81548173ffffffffffffffffffffffffffffffffffffffff021916908373ffffffffffffffffffffffffffffffffffffffff16021790555060018160080160016101000a81548160ff021916908360018111156107be576107bd611c1f565b5b02179055506000816006015490506000811161080f576040517f08c379a0000000000000000000000000000000000000000000000000000000008152600401610806906122d3565b60405180910390fd5b6000826006018190555060008573ffffffffffffffffffffffffffffffffffffffff168260405161083f90612324565b60006040518083038185875af1925050503d806000811461087c576040519150601f19603f3d011682016040523d82523d6000602084013e610881565b606091505b50509050806108c5576040517f08c379a00000000000000000000000000000000000000000000000000000000081526004016108bc90612385565b60405180910390fd5b867f5d36374a8d1a6cae8e46381aea50cae98b85e5ede9e10916d26179527900e52087846040516108f79291906123a5565b60405180910390a2505050505061090c6115d8565b5050565b600080855111610955576040517f08c379a000000000000000000000000000000000000000000000000000000000815260040161094c9061241a565b60405180910390fd5b6000845111610999576040517f08c379a000000000000000000000000000000000000000000000000000000000815260040161099090612486565b60405180910390fd5b600083116109dc576040517f08c379a00000000000000000000000000000000000000000000000000000000081526004016109d3906124f2565b60405180910390fd5b6001821180156109ed5750600a8211155b610a2c576040517f08c379a0000000000000000000000000000000000000000000000000000000008152600401610a239061255e565b60405180910390fd5b600060066000815480929190610a419061257e565b919050559050600060026000838152602001908152602001600020905081816000018190555086816001019080519060200190610a7f92919061172e565b5085816002019080519060200190610a9892919061172e565b5084816003018190555083816005018190555042816007018190555060008160080160006101000a81548160ff02191690836004811115610adc57610adb611c1f565b5b021790555060008160080160016101000a81548160ff02191690836001811115610b0957610b08611c1f565b5b02179055503381600b0160006101000a81548173ffffffffffffffffffffffffffffffffffffffff021916908373ffffffffffffffffffffffffffffffffffffffff160217905550817f0e2b64f820c6349ce53d20faa9c7eba7858ae3c3ea29cc7fbf30c50fffcf31708888888833604051610b899594939291906125c7565b60405180910390a28192505050949350505050565b60008060026000858152602001908152602001600020600901905060005b8180549050811015610c57578373ffffffffffffffffffffffffffffffffffffffff16828281548110610bf257610bf1612628565b5b9060005260206000200160009054906101000a900473ffffffffffffffffffffffffffffffffffffffff1673ffffffffffffffffffffffffffffffffffffffff161415610c4457600192505050610c5e565b8080610c4f9061257e565b915050610bbc565b5060009150505b92915050565b6002602052806000526040600020600091509050806000015490806001018054610c8d90612686565b80601f0160208091040260200160405190810160405280929190818152602001828054610cb990612686565b8015610d065780601f10610cdb57610100808354040283529160200191610d06565b820191906000526020600020905b815481529060010190602001808311610ce957829003601f168201915b505050505090806002018054610d1b90612686565b80601f0160208091040260200160405190810160405280929190818152602001828054610d4790612686565b8015610d945780601f10610d6957610100808354040283529160200191610d94565b820191906000526020600020905b815481529060010190602001808311610d7757829003601f168201915b5050505050908060030154908060040154908060050154908060060154908060070154908060080160009054906101000a900460ff16908060080160019054906101000a900460ff169080600a0160009054906101000a900473ffffffffffffffffffffffffffffffffffffffff169080600b0160009054906101000a900473ffffffffffffffffffffffffffffffffffffffff1690508c565b610e366115e2565b610e406000611660565b565b60056020528060005260406000206000915054906101000a900460ff1681565b60046020528160005260406000208181548110610e7e57600080fd5b906000526020600020016000915091509054906101000a900473ffffffffffffffffffffffffffffffffffffffff1681565b6000600160009054906101000a900473ffffffffffffffffffffffffffffffffffffffff16905090565b6000806000836006548110610f24576040517f08c379a0000000000000000000000000000000000000000000000000000000008152600401610f1b90611fa0565b60405180910390fd5b600060026000878152602001908152602001600020905061012c8160070154610f4d91906121c5565b42101580610f90575060036004811115610f6a57610f69611c1f565b5b8160080160009054906101000a900460ff166004811115610f8e57610f8d611c1f565b5b145b610fcf576040517f08c379a0000000000000000000000000000000000000000000000000000000008152600401610fc690612704565b60405180910390fd5b8060080160009054906101000a900460ff1681600a0160009054906101000a900473ffffffffffffffffffffffffffffffffffffffff16826006015494509450945050509193909250565b61012c81565b60065481565b606081600654811061106d576040517f08c379a000000000000000000000000000000000000000000000000000000000815260040161106490611fa0565b60405180910390fd5b6002600084815260200190815260200160002060090180548060200260200160405190810160405280929190818152602001828054801561110357602002820191906000526020600020905b8160009054906101000a900473ffffffffffffffffffffffffffffffffffffffff1673ffffffffffffffffffffffffffffffffffffffff16815260200190600101908083116110b9575b5050505050915050919050565b611118611588565b80600654811061115d576040517f08c379a000000000000000000000000000000000000000000000000000000000815260040161115490611fa0565b60405180910390fd5b6000600260008481526020019081526020016000209050806003015434146111ba576040517f08c379a00000000000000000000000000000000000000000000000000000000081526004016111b190612770565b60405180910390fd5b8060050154816009018054905010611207576040517f08c379a00000000000000000000000000000000000000000000000000000000081526004016111fe906127dc565b60405180910390fd5b6000600481111561121b5761121a611c1f565b5b8160080160009054906101000a900460ff16600481111561123f5761123e611c1f565b5b148061128057506001600481111561125a57611259611c1f565b5b8160080160009054906101000a900460ff16600481111561127e5761127d611c1f565b5b145b6112bf576040517f08c379a00000000000000000000000000000000000000000000000000000000081526004016112b690612848565b60405180910390fd5b61012c81600701546112d191906121c5565b421115611313576040517f08c379a000000000000000000000000000000000000000000000000000000000815260040161130a906128b4565b60405180910390fd5b80600b0160009054906101000a900473ffffffffffffffffffffffffffffffffffffffff1673ffffffffffffffffffffffffffffffffffffffff163373ffffffffffffffffffffffffffffffffffffffff1614156113a6576040517f08c379a000000000000000000000000000000000000000000000000000000000815260040161139d90612920565b60405180910390fd5b80600901339080600181540180825580915050600190039060005260206000200160009091909190916101000a81548173ffffffffffffffffffffffffffffffffffffffff021916908373ffffffffffffffffffffffffffffffffffffffff1602179055508060040160008154809291906114209061257e565b91905055503481600601600082825461143991906121c5565b92505081905550827f87969bc7faf902221a147b95ceba76e011c5efb0339a0a8ee7a2bb82d9cfbbd6336040516114709190611df5565b60405180910390a26001816009018054905014156114b65760018160080160006101000a81548160ff021916908360048111156114b0576114af611c1f565b5b02179055505b8060050154816009018054905014156114f75760028160080160006101000a81548160ff021916908360048111156114f1576114f0611c1f565b5b02179055505b50506115016115d8565b50565b61150c6115e2565b600073ffffffffffffffffffffffffffffffffffffffff168173ffffffffffffffffffffffffffffffffffffffff16141561157c576040517f08c379a0000000000000000000000000000000000000000000000000000000008152600401611573906129b2565b60405180910390fd5b61158581611660565b50565b600260005414156115ce576040517f08c379a00000000000000000000000000000000000000000000000000000000081526004016115c590612a1e565b60405180910390fd5b6002600081905550565b6001600081905550565b6115ea611726565b73ffffffffffffffffffffffffffffffffffffffff16611608610eb0565b73ffffffffffffffffffffffffffffffffffffffff161461165e576040517f08c379a000000000000000000000000000000000000000000000000000000000815260040161165590612a8a565b60405180910390fd5b565b6000600160009054906101000a900473ffffffffffffffffffffffffffffffffffffffff16905081600160006101000a81548173ffffffffffffffffffffffffffffffffffffffff021916908373ffffffffffffffffffffffffffffffffffffffff1602179055508173ffffffffffffffffffffffffffffffffffffffff168173ffffffffffffffffffffffffffffffffffffffff167f8be0079c531659141344cd1fd0a4f28419497f9722a3daafe3b4186f6b6457e060405160405180910390a35050565b600033905090565b82805461173a90612686565b90600052602060002090601f01602090048101928261175c57600085556117a3565b82601f1061177557805160ff19168380011785556117a3565b828001600101855582156117a3579182015b828111156117a2578251825591602001919060010190611787565b5b5090506117b091906117b4565b5090565b5b808211156117cd5760008160009055506001016117b5565b5090565b600082825260208201905092915050565b7f446f206e6f742073656e6420455448206469726563746c790000000000000000600082015250565b60006118186018836117d1565b9150611823826117e2565b602082019050919050565b600060208201905081810360008301526118478161180b565b9050919050565b6000604051905090565b600080fd5b600080fd5b6000819050919050565b61187581611862565b811461188057600080fd5b50565b6000813590506118928161186c565b92915050565b600073ffffffffffffffffffffffffffffffffffffffff82169050919050565b60006118c382611898565b9050919050565b6118d3816118b8565b81146118de57600080fd5b50565b6000813590506118f0816118ca565b92915050565b6000806040838503121561190d5761190c611858565b5b600061191b85828601611883565b925050602061192c858286016118e1565b9150509250929050565b61193f81611862565b82525050565b600060208201905061195a6000830184611936565b92915050565b600080fd5b600080fd5b6000601f19601f8301169050919050565b7f4e487b7100000000000000000000000000000000000000000000000000000000600052604160045260246000fd5b6119b38261196a565b810181811067ffffffffffffffff821117156119d2576119d161197b565b5b80604052505050565b60006119e561184e565b90506119f182826119aa565b919050565b600067ffffffffffffffff821115611a1157611a1061197b565b5b611a1a8261196a565b9050602081019050919050565b82818337600083830152505050565b6000611a49611a44846119f6565b6119db565b905082815260208101848484011115611a6557611a64611965565b5b611a70848285611a27565b509392505050565b600082601f830112611a8d57611a8c611960565b5b8135611a9d848260208601611a36565b91505092915050565b60008060008060808587031215611ac057611abf611858565b5b600085013567ffffffffffffffff811115611ade57611add61185d565b5b611aea87828801611a78565b945050602085013567ffffffffffffffff811115611b0b57611b0a61185d565b5b611b1787828801611a78565b9350506040611b2887828801611883565b9250506060611b3987828801611883565b91505092959194509250565b60008115159050919050565b611b5a81611b45565b82525050565b6000602082019050611b756000830184611b51565b92915050565b600060208284031215611b9157611b90611858565b5b6000611b9f84828501611883565b91505092915050565b600081519050919050565b60005b83811015611bd1578082015181840152602081019050611bb6565b83811115611be0576000848401525b50505050565b6000611bf182611ba8565b611bfb81856117d1565b9350611c0b818560208601611bb3565b611c148161196a565b840191505092915050565b7f4e487b7100000000000000000000000000000000000000000000000000000000600052602160045260246000fd5b60058110611c5f57611c5e611c1f565b5b50565b6000819050611c7082611c4e565b919050565b6000611c8082611c62565b9050919050565b611c9081611c75565b82525050565b60028110611ca757611ca6611c1f565b5b50565b6000819050611cb882611c96565b919050565b6000611cc882611caa565b9050919050565b611cd881611cbd565b82525050565b611ce7816118b8565b82525050565b600061018082019050611d03600083018f611936565b8181036020830152611d15818e611be6565b90508181036040830152611d29818d611be6565b9050611d38606083018c611936565b611d45608083018b611936565b611d5260a083018a611936565b611d5f60c0830189611936565b611d6c60e0830188611936565b611d7a610100830187611c87565b611d88610120830186611ccf565b611d96610140830185611cde565b611da4610160830184611cde565b9d9c50505050505050505050505050565b60008060408385031215611dcc57611dcb611858565b5b6000611dda85828601611883565b9250506020611deb85828601611883565b9150509250929050565b6000602082019050611e0a6000830184611cde565b92915050565b6000606082019050611e256000830186611c87565b611e326020830185611cde565b611e3f6040830184611936565b949350505050565b600081519050919050565b600082825260208201905092915050565b6000819050602082019050919050565b611e7c816118b8565b82525050565b6000611e8e8383611e73565b60208301905092915050565b6000602082019050919050565b6000611eb282611e47565b611ebc8185611e52565b9350611ec783611e63565b8060005b83811015611ef8578151611edf8882611e82565b9750611eea83611e9a565b925050600181019050611ecb565b5085935050505092915050565b60006020820190508181036000830152611f1f8184611ea7565b905092915050565b600060208284031215611f3d57611f3c611858565b5b6000611f4b848285016118e1565b91505092915050565b7f4c6f62627920646f6573206e6f74206578697374000000000000000000000000600082015250565b6000611f8a6014836117d1565b9150611f9582611f54565b602082019050919050565b60006020820190508181036000830152611fb981611f7d565b9050919050565b7f4f6e6c79206c6f6262792063726561746f722063616e2065786563757465207460008201527f6869730000000000000000000000000000000000000000000000000000000000602082015250565b600061201c6023836117d1565b915061202782611fc0565b604082019050919050565b6000602082019050818103600083015261204b8161200f565b9050919050565b7f416c726561647920646973747269627574656400000000000000000000000000600082015250565b60006120886013836117d1565b915061209382612052565b602082019050919050565b600060208201905081810360008301526120b78161207b565b9050919050565b7f4c6f626279206e6f7420696e2070726f67726573730000000000000000000000600082015250565b60006120f46015836117d1565b91506120ff826120be565b602082019050919050565b60006020820190508181036000830152612123816120e7565b9050919050565b7f57696e6e6572206e6f7420696e2074686973206c6f6262790000000000000000600082015250565b60006121606018836117d1565b915061216b8261212a565b602082019050919050565b6000602082019050818103600083015261218f81612153565b9050919050565b7f4e487b7100000000000000000000000000000000000000000000000000000000600052601160045260246000fd5b60006121d082611862565b91506121db83611862565b9250827fffffffffffffffffffffffffffffffffffffffffffffffffffffffffffffffff038211156122105761220f612196565b5b828201905092915050565b7f4c6f626279206e6f7420726561647920666f72207061796f7574000000000000600082015250565b6000612251601a836117d1565b915061225c8261221b565b602082019050919050565b6000602082019050818103600083015261228081612244565b9050919050565b7f4e6f207072697a6520746f206469737472696275746500000000000000000000600082015250565b60006122bd6016836117d1565b91506122c882612287565b602082019050919050565b600060208201905081810360008301526122ec816122b0565b9050919050565b600081905092915050565b50565b600061230e6000836122f3565b9150612319826122fe565b600082019050919050565b600061232f82612301565b9150819050919050565b7f5072697a65207472616e73666572206661696c65640000000000000000000000600082015250565b600061236f6015836117d1565b915061237a82612339565b602082019050919050565b6000602082019050818103600083015261239e81612362565b9050919050565b60006040820190506123ba6000830185611cde565b6123c76020830184611936565b9392505050565b7f4c6f626279206e616d652063616e6e6f7420626520656d707479000000000000600082015250565b6000612404601a836117d1565b915061240f826123ce565b602082019050919050565b60006020820190508181036000830152612433816123f7565b9050919050565b7f43617465676f72792063616e6e6f7420626520656d7074790000000000000000600082015250565b60006124706018836117d1565b915061247b8261243a565b602082019050919050565b6000602082019050818103600083015261249f81612463565b9050919050565b7f456e74727920666565206d7573742062652067726561746572207468616e2030600082015250565b60006124dc6020836117d1565b91506124e7826124a6565b602082019050919050565b6000602082019050818103600083015261250b816124cf565b9050919050565b7f496e76616c6964206d617820706c617965727300000000000000000000000000600082015250565b60006125486013836117d1565b915061255382612512565b602082019050919050565b600060208201905081810360008301526125778161253b565b9050919050565b600061258982611862565b91507fffffffffffffffffffffffffffffffffffffffffffffffffffffffffffffffff8214156125bc576125bb612196565b5b600182019050919050565b600060a08201905081810360008301526125e18188611be6565b905081810360208301526125f58187611be6565b90506126046040830186611936565b6126116060830185611936565b61261e6080830184611cde565b9695505050505050565b7f4e487b7100000000000000000000000000000000000000000000000000000000600052603260045260246000fd5b7f4e487b7100000000000000000000000000000000000000000000000000000000600052602260045260246000fd5b6000600282049050600182168061269e57607f821691505b602082108114156126b2576126b1612657565b5b50919050565b7f526573756c7473206e6f7420617661696c61626c652079657400000000000000600082015250565b60006126ee6019836117d1565b91506126f9826126b8565b602082019050919050565b6000602082019050818103600083015261271d816126e1565b9050919050565b7f496e636f727265637420656e7472792066656500000000000000000000000000600082015250565b600061275a6013836117d1565b915061276582612724565b602082019050919050565b600060208201905081810360008301526127898161274d565b9050919050565b7f4c6f6262792066756c6c00000000000000000000000000000000000000000000600082015250565b60006127c6600a836117d1565b91506127d182612790565b602082019050919050565b600060208201905081810360008301526127f5816127b9565b9050919050565b7f4c6f626279206e6f74206f70656e000000000000000000000000000000000000600082015250565b6000612832600e836117d1565b915061283d826127fc565b602082019050919050565b6000602082019050818103600083015261286181612825565b9050919050565b7f4c6f626279206578706972656400000000000000000000000000000000000000600082015250565b600061289e600d836117d1565b91506128a982612868565b602082019050919050565b600060208201905081810360008301526128cd81612891565b9050919050565b7f43726561746f722063616e6e6f74206a6f696e2074686973206c6f6262790000600082015250565b600061290a601e836117d1565b9150612915826128d4565b602082019050919050565b60006020820190508181036000830152612939816128fd565b9050919050565b7f4f776e61626c653a206e6577206f776e657220697320746865207a65726f206160008201527f6464726573730000000000000000000000000000000000000000000000000000602082015250565b600061299c6026836117d1565b91506129a782612940565b604082019050919050565b600060208201905081810360008301526129cb8161298f565b9050919050565b7f5265656e7472616e637947756172643a207265656e7472616e742063616c6c00600082015250565b6000612a08601f836117d1565b9150612a13826129d2565b602082019050919050565b60006020820190508181036000830152612a37816129fb565b9050919050565b7f4f776e61626c653a2063616c6c6572206973206e6f7420746865206f776e6572600082015250565b6000612a746020836117d1565b9150612a7f82612a3e565b602082019050919050565b60006020820190508181036000830152612aa381612a67565b905091905056fea26469706673582212200eb36b8186e0d1c689652a4617f660c8e501c453a14c7b56a75dba6710e4d27064736f6c634300080a0033",
  "linkReferences": {},
  "deployedLinkReferences": {}
}