{"contracts/Quiz.sol":{"QuizCraftArena":{"abi":[{"anonymous":false,"inputs":[{"indexed":true,"internalType":"uint256","name":"lobbyId","type":"uint256"},{"indexed":false,"internalType":"address[]","name":"leaderboard","type":"address[]"}],"name":"LeaderboardSet","type":"event"},{"anonymous":false,"inputs":[{"indexed":true,"internalType":"uint256","name":"lobbyId","type":"uint256"}],"name":"LobbyCancelled","type":"event"},{"anonymous":false,"inputs":[{"indexed":true,"internalType":"uint256","name":"lobbyId","type":"uint256"},{"indexed":false,"internalType":"address","name":"winner","type":"address"},{"indexed":false,"internalType":"uint256","name":"prize","type":"uint256"}],"name":"LobbyCompleted","type":"event"},{"anonymous":false,"inputs":[{"indexed":true,"internalType":"uint256","name":"lobbyId","type":"uint256"},{"indexed":false,"internalType":"string","name":"name","type":"string"},{"indexed":false,"internalType":"string","name":"category","type":"string"},{"indexed":false,"internalType":"uint256","name":"entryFee","type":"uint256"},{"indexed":false,"internalType":"uint256","name":"maxPlayers","type":"uint256"},{"indexed":false,"internalType":"address","name":"creator","type":"address"}],"name":"LobbyCreated","type":"event"},{"anonymous":false,"inputs":[{"indexed":true,"internalType":"address","name":"previousOwner","type":"address"},{"indexed":true,"internalType":"address","name":"newOwner","type":"address"}],"name":"OwnershipTransferred","type":"event"},{"anonymous":false,"inputs":[{"indexed":true,"internalType":"uint256","name":"lobbyId","type":"uint256"},{"indexed":false,"internalType":"address","name":"player","type":"address"}],"name":"PlayerJoined","type":"event"},{"anonymous":false,"inputs":[{"indexed":true,"internalType":"uint256","name":"lobbyId","type":"uint256"},{"indexed":false,"internalType":"address[]","name":"players","type":"address[]"},{"indexed":false,"internalType":"uint256[]","name":"scores","type":"uint256[]"}],"name":"ScoresSubmitted","type":"event"},{"inputs":[],"name":"LOBBY_TIMEOUT","outputs":[{"internalType":"uint256","name":"","type":"uint256"}],"stateMutability":"view","type":"function"},{"inputs":[{"internalType":"string","name":"_name","type":"string"},{"internalType":"string","name":"_category","type":"string"},{"internalType":"uint256","name":"_entryFee","type":"uint256"},{"internalType":"uint256","name":"_maxPlayers","type":"uint256"}],"name":"createLobby","outputs":[{"internalType":"uint256","name":"","type":"uint256"}],"stateMutability":"nonpayable","type":"function"},{"inputs":[{"internalType":"uint256","name":"_lobbyId","type":"uint256"},{"internalType":"address","name":"_winner","type":"address"}],"name":"executeWinnerPayout","outputs":[],"stateMutability":"nonpayable","type":"function"},{"inputs":[{"internalType":"uint256","name":"_lobbyId","type":"uint256"}],"name":"getLobbyResult","outputs":[{"internalType":"enum QuizCraftArena.LobbyStatus","name":"","type":"uint8"},{"internalType":"address","name":"","type":"address"},{"internalType":"uint256","name":"","type":"uint256"}],"stateMutability":"view","type":"function"},{"inputs":[{"internalType":"uint256","name":"_lobbyId","type":"uint256"}],"name":"getPlayersInLobby","outputs":[{"internalType":"address[]","name":"","type":"address[]"}],"stateMutability":"view","type":"function"},{"inputs":[{"internalType":"uint256","name":"_lobbyId","type":"uint256"},{"internalType":"address","name":"_player","type":"address"}],"name":"isPlayerInLobby","outputs":[{"internalType":"bool","name":"","type":"bool"}],"stateMutability":"view","type":"function"},{"inputs":[{"internalType":"uint256","name":"_lobbyId","type":"uint256"}],"name":"joinLobby","outputs":[],"stateMutability":"payable","type":"function"},{"inputs":[{"internalType":"uint256","name":"","type":"uint256"}],"name":"leaderboardSet","outputs":[{"internalType":"bool","name":"","type":"bool"}],"stateMutability":"view","type":"function"},{"inputs":[{"internalType":"uint256","name":"","type":"uint256"}],"name":"lobbies","outputs":[{"internalType":"uint256","name":"id","type":"uint256"},{"internalType":"string","name":"name","type":"string"},{"internalType":"string","name":"category","type":"string"},{"internalType":"uint256","name":"entryFee","type":"uint256"},{"internalType":"uint256","name":"playerCount","type":"uint256"},{"internalType":"uint256","name":"maxPlayers","type":"uint256"},{"internalType":"uint256","name":"prizePool","type":"uint256"},{"internalType":"uint256","name":"createdAt","type":"uint256"},{"internalType":"enum QuizCraftArena.LobbyStatus","name":"status","type":"uint8"},{"internalType":"enum QuizCraftArena.DistributionStatus","name":"distribution","type":"uint8"},{"internalType":"address","name":"winner","type":"address"},{"internalType":"address","name":"creator","type":"address"}],"stateMutability":"view","type":"function"},{"inputs":[{"internalType":"uint256","name":"","type":"uint256"},{"internalType":"uint256","name":"","type":"uint256"}],"name":"lobbyLeaderboard","outputs":[{"internalType":"address","name":"","type":"address"}],"stateMutability":"view","type":"function"},{"inputs":[],"name":"nextLobbyId","outputs":[{"internalType":"uint256","name":"","type":"uint256"}],"stateMutability":"view","type":"function"},{"inputs":[],"name":"owner","outputs":[{"internalType":"address","name":"","type":"address"}],"stateMutability":"view","type":"function"},{"inputs":[{"internalType":"uint256","name":"","type":"uint256"},{"internalType":"address","name":"","type":"address"}],"name":"playerScores","outputs":[{"internalType":"uint256","name":"","type":"uint256"}],"stateMutability":"view","type":"function"},{"inputs":[],"name":"renounceOwnership","outputs":[],"stateMutability":"nonpayable","type":"function"},{"inputs":[{"internalType":"address","name":"newOwner","type":"address"}],"name":"transferOwnership","outputs":[],"stateMutability":"nonpayable","type":"function"},{"stateMutability":"payable","type":"receive"}],"evm":{"bytecode":{"linkReferences":{},"object":"60806040523480156200001157600080fd5b5060016000819055506200003a6200002e6200004060201b60201c565b6200004860201b60201c565b6200010e565b600033905090565b6000600160009054906101000a900473ffffffffffffffffffffffffffffffffffffffff16905081600160006101000a81548173ffffffffffffffffffffffffffffffffffffffff021916908373ffffffffffffffffffffffffffffffffffffffff1602179055508173ffffffffffffffffffffffffffffffffffffffff168173ffffffffffffffffffffffffffffffffffffffff167f8be0079c531659141344cd1fd0a4f28419497f9722a3daafe3b4186f6b6457e060405160405180910390a35050565b612aa0806200011e6000396000f3fe6080604052600436106100eb5760003560e01c8063869bb51b1161008a578063c309b1e311610059578063c309b1e31461037e578063d85cdcb6146103a9578063e9173b3a146103e6578063f2fde38b146104025761012b565b8063869bb51b146102ac5780638da5cb5b146102e95780638e9be6f614610314578063a16353bf146103535761012b565b8063559ab8cc116100c6578063559ab8cc146101d35780636e8fb4c614610210578063715018a614610258578063729f767d1461026f5761012b565b8062200e27146101305780630cc46ba71461016d5780632a14ebb4146101965761012b565b3661012b576040517f08c379a0000000000000000000000000000000000000000000000000000000008152600401610122906117ee565b60405180910390fd5b600080fd5b34801561013c57600080fd5b50610157600480360381019061015291906118b6565b61042b565b6040516101649190611905565b60405180910390f35b34801561017957600080fd5b50610194600480360381019061018f91906118b6565b610450565b005b3480156101a257600080fd5b506101bd60048036038101906101b89190611a66565b6108d0565b6040516101ca9190611905565b60405180910390f35b3480156101df57600080fd5b506101fa60048036038101906101f591906118b6565b610b5e565b6040516102079190611b20565b60405180910390f35b34801561021c57600080fd5b5061023760048036038101906102329190611b3b565b610c24565b60405161024f9c9b9a99989796959493929190611cad565b60405180910390f35b34801561026457600080fd5b5061026d610dee565b005b34801561027b57600080fd5b5061029660048036038101906102919190611b3b565b610e02565b6040516102a39190611b20565b60405180910390f35b3480156102b857600080fd5b506102d360048036038101906102ce9190611d75565b610e22565b6040516102e09190611db5565b60405180910390f35b3480156102f557600080fd5b506102fe610e70565b60405161030b9190611db5565b60405180910390f35b34801561032057600080fd5b5061033b60048036038101906103369190611b3b565b610e9a565b60405161034a93929190611dd0565b60405180910390f35b34801561035f57600080fd5b50610368610fda565b6040516103759190611905565b60405180910390f35b34801561038a57600080fd5b50610393610fe0565b6040516103a09190611905565b60405180910390f35b3480156103b557600080fd5b506103d060048036038101906103cb9190611b3b565b610fe6565b6040516103dd9190611ec5565b60405180910390f35b61040060048036038101906103fb9190611b3b565b6110d0565b005b34801561040e57600080fd5b5061042960048036038101906104249190611ee7565b6114c4565b005b6003602052816000526040600020602052806000526040600020600091509150505481565b610458611548565b81600654811061049d576040517f08c379a000000000000000000000000000000000000000000000000000000000815260040161049490611f60565b60405180910390fd5b8260026000828152602001908152602001600020600b0160009054906101000a900473ffffffffffffffffffffffffffffffffffffffff1673ffffffffffffffffffffffffffffffffffffffff163373ffffffffffffffffffffffffffffffffffffffff1614610542576040517f08c379a000000000000000000000000000000000000000000000000000000000815260040161053990611ff2565b60405180910390fd5b60006002600086815260200190815260200160002090506002600481111561056d5761056c611bdf565b5b8160080160009054906101000a900460ff16600481111561059157610590611bdf565b5b146105d1576040517f08c379a00000000000000000000000000000000000000000000000000000000081526004016105c89061205e565b60405180910390fd5b6105db8585610b5e565b61061a576040517f08c379a0000000000000000000000000000000000000000000000000000000008152600401610611906120ca565b60405180910390fd5b6000600181111561062e5761062d611bdf565b5b8160080160019054906101000a900460ff16600181111561065257610651611bdf565b5b14610692576040517f08c379a000000000000000000000000000000000000000000000000000000000815260040161068990612136565b60405180910390fd5b61012c81600701546106a49190612185565b4210156106e6576040517f08c379a00000000000000000000000000000000000000000000000000000000081526004016106dd90612227565b60405180910390fd5b60038160080160006101000a81548160ff0219169083600481111561070e5761070d611bdf565b5b02179055508381600a0160006101000a81548173ffffffffffffffffffffffffffffffffffffffff021916908373ffffffffffffffffffffffffffffffffffffffff16021790555060018160080160016101000a81548160ff0219169083600181111561077e5761077d611bdf565b5b0217905550600081600601549050600081116107cf576040517f08c379a00000000000000000000000000000000000000000000000000000000081526004016107c690612293565b60405180910390fd5b6000826006018190555060008573ffffffffffffffffffffffffffffffffffffffff16826040516107ff906122e4565b60006040518083038185875af1925050503d806000811461083c576040519150601f19603f3d011682016040523d82523d6000602084013e610841565b606091505b5050905080610885576040517f08c379a000000000000000000000000000000000000000000000000000000000815260040161087c90612345565b60405180910390fd5b867f5d36374a8d1a6cae8e46381aea50cae98b85e5ede9e10916d26179527900e52087846040516108b7929190612365565b60405180910390a250505050506108cc611598565b5050565b600080855111610915576040517f08c379a000000000000000000000000000000000000000000000000000000000815260040161090c906123da565b60405180910390fd5b6000845111610959576040517f08c379a000000000000000000000000000000000000000000000000000000000815260040161095090612446565b60405180910390fd5b6000831161099c576040517f08c379a0000000000000000000000000000000000000000000000000000000008152600401610993906124b2565b60405180910390fd5b6001821180156109ad5750600a8211155b6109ec576040517f08c379a00000000000000000000000000000000000000000000000000000000081526004016109e39061251e565b60405180910390fd5b600060066000815480929190610a019061253e565b919050559050600060026000838152602001908152602001600020905081816000018190555086816001019080519060200190610a3f9291906116ee565b5085816002019080519060200190610a589291906116ee565b5084816003018190555083816005018190555042816007018190555060008160080160006101000a81548160ff02191690836004811115610a9c57610a9b611bdf565b5b021790555060008160080160016101000a81548160ff02191690836001811115610ac957610ac8611bdf565b5b02179055503381600b0160006101000a81548173ffffffffffffffffffffffffffffffffffffffff021916908373ffffffffffffffffffffffffffffffffffffffff160217905550817f0e2b64f820c6349ce53d20faa9c7eba7858ae3c3ea29cc7fbf30c50fffcf31708888888833604051610b49959493929190612587565b60405180910390a28192505050949350505050565b60008060026000858152602001908152602001600020600901905060005b8180549050811015610c17578373ffffffffffffffffffffffffffffffffffffffff16828281548110610bb257610bb16125e8565b5b9060005260206000200160009054906101000a900473ffffffffffffffffffffffffffffffffffffffff1673ffffffffffffffffffffffffffffffffffffffff161415610c0457600192505050610c1e565b8080610c0f9061253e565b915050610b7c565b5060009150505b92915050565b6002602052806000526040600020600091509050806000015490806001018054610c4d90612646565b80601f0160208091040260200160405190810160405280929190818152602001828054610c7990612646565b8015610cc65780601f10610c9b57610100808354040283529160200191610cc6565b820191906000526020600020905b815481529060010190602001808311610ca957829003601f168201915b505050505090806002018054610cdb90612646565b80601f0160208091040260200160405190810160405280929190818152602001828054610d0790612646565b8015610d545780601f10610d2957610100808354040283529160200191610d54565b820191906000526020600020905b815481529060010190602001808311610d3757829003601f168201915b5050505050908060030154908060040154908060050154908060060154908060070154908060080160009054906101000a900460ff16908060080160019054906101000a900460ff169080600a0160009054906101000a900473ffffffffffffffffffffffffffffffffffffffff169080600b0160009054906101000a900473ffffffffffffffffffffffffffffffffffffffff1690508c565b610df66115a2565b610e006000611620565b565b60056020528060005260406000206000915054906101000a900460ff1681565b60046020528160005260406000208181548110610e3e57600080fd5b906000526020600020016000915091509054906101000a900473ffffffffffffffffffffffffffffffffffffffff1681565b6000600160009054906101000a900473ffffffffffffffffffffffffffffffffffffffff16905090565b6000806000836006548110610ee4576040517f08c379a0000000000000000000000000000000000000000000000000000000008152600401610edb90611f60565b60405180910390fd5b600060026000878152602001908152602001600020905061012c8160070154610f0d9190612185565b42101580610f50575060036004811115610f2a57610f29611bdf565b5b8160080160009054906101000a900460ff166004811115610f4e57610f4d611bdf565b5b145b610f8f576040517f08c379a0000000000000000000000000000000000000000000000000000000008152600401610f86906126c4565b60405180910390fd5b8060080160009054906101000a900460ff1681600a0160009054906101000a900473ffffffffffffffffffffffffffffffffffffffff16826006015494509450945050509193909250565b61012c81565b60065481565b606081600654811061102d576040517f08c379a000000000000000000000000000000000000000000000000000000000815260040161102490611f60565b60405180910390fd5b600260008481526020019081526020016000206009018054806020026020016040519081016040528092919081815260200182805480156110c357602002820191906000526020600020905b8160009054906101000a900473ffffffffffffffffffffffffffffffffffffffff1673ffffffffffffffffffffffffffffffffffffffff1681526020019060010190808311611079575b5050505050915050919050565b6110d8611548565b80600654811061111d576040517f08c379a000000000000000000000000000000000000000000000000000000000815260040161111490611f60565b60405180910390fd5b60006002600084815260200190815260200160002090506000600481111561114857611147611bdf565b5b8160080160009054906101000a900460ff16600481111561116c5761116b611bdf565b5b14806111ad57506001600481111561118757611186611bdf565b5b8160080160009054906101000a900460ff1660048111156111ab576111aa611bdf565b5b145b6111ec576040517f08c379a00000000000000000000000000000000000000000000000000000000081526004016111e390612730565b60405180910390fd5b80600301543414611232576040517f08c379a00000000000000000000000000000000000000000000000000000000081526004016112299061279c565b60405180910390fd5b806005015481600901805490501061127f576040517f08c379a000000000000000000000000000000000000000000000000000000000815260040161127690612808565b60405180910390fd5b61012c81600701546112919190612185565b4211156112d3576040517f08c379a00000000000000000000000000000000000000000000000000000000081526004016112ca90612874565b60405180910390fd5b80600b0160009054906101000a900473ffffffffffffffffffffffffffffffffffffffff1673ffffffffffffffffffffffffffffffffffffffff163373ffffffffffffffffffffffffffffffffffffffff161415611366576040517f08c379a000000000000000000000000000000000000000000000000000000000815260040161135d906128e0565b60405180910390fd5b80600901339080600181540180825580915050600190039060005260206000200160009091909190916101000a81548173ffffffffffffffffffffffffffffffffffffffff021916908373ffffffffffffffffffffffffffffffffffffffff1602179055508060040160008154809291906113e09061253e565b9190505550348160060160008282546113f99190612185565b92505081905550827f87969bc7faf902221a147b95ceba76e011c5efb0339a0a8ee7a2bb82d9cfbbd6336040516114309190611db5565b60405180910390a26001816009018054905014156114765760018160080160006101000a81548160ff021916908360048111156114705761146f611bdf565b5b02179055505b8060050154816009018054905014156114b75760028160080160006101000a81548160ff021916908360048111156114b1576114b0611bdf565b5b02179055505b50506114c1611598565b50565b6114cc6115a2565b600073ffffffffffffffffffffffffffffffffffffffff168173ffffffffffffffffffffffffffffffffffffffff16141561153c576040517f08c379a000000000000000000000000000000000000000000000000000000000815260040161153390612972565b60405180910390fd5b61154581611620565b50565b6002600054141561158e576040517f08c379a0000000000000000000000000000000000000000000000000000000008152600401611585906129de565b60405180910390fd5b6002600081905550565b6001600081905550565b6115aa6116e6565b73ffffffffffffffffffffffffffffffffffffffff166115c8610e70565b73ffffffffffffffffffffffffffffffffffffffff161461161e576040517f08c379a000000000000000000000000000000000000000000000000000000000815260040161161590612a4a565b60405180910390fd5b565b6000600160009054906101000a900473ffffffffffffffffffffffffffffffffffffffff16905081600160006101000a81548173ffffffffffffffffffffffffffffffffffffffff021916908373ffffffffffffffffffffffffffffffffffffffff1602179055508173ffffffffffffffffffffffffffffffffffffffff168173ffffffffffffffffffffffffffffffffffffffff167f8be0079c531659141344cd1fd0a4f28419497f9722a3daafe3b4186f6b6457e060405160405180910390a35050565b600033905090565b8280546116fa90612646565b90600052602060002090601f01602090048101928261171c5760008555611763565b82601f1061173557805160ff1916838001178555611763565b82800160010185558215611763579182015b82811115611762578251825591602001919060010190611747565b5b5090506117709190611774565b5090565b5b8082111561178d576000816000905550600101611775565b5090565b600082825260208201905092915050565b7f446f206e6f742073656e6420455448206469726563746c790000000000000000600082015250565b60006117d8601883611791565b91506117e3826117a2565b602082019050919050565b60006020820190508181036000830152611807816117cb565b9050919050565b6000604051905090565b600080fd5b600080fd5b6000819050919050565b61183581611822565b811461184057600080fd5b50565b6000813590506118528161182c565b92915050565b600073ffffffffffffffffffffffffffffffffffffffff82169050919050565b600061188382611858565b9050919050565b61189381611878565b811461189e57600080fd5b50565b6000813590506118b08161188a565b92915050565b600080604083850312156118cd576118cc611818565b5b60006118db85828601611843565b92505060206118ec858286016118a1565b9150509250929050565b6118ff81611822565b82525050565b600060208201905061191a60008301846118f6565b92915050565b600080fd5b600080fd5b6000601f19601f8301169050919050565b7f4e487b7100000000000000000000000000000000000000000000000000000000600052604160045260246000fd5b6119738261192a565b810181811067ffffffffffffffff821117156119925761199161193b565b5b80604052505050565b60006119a561180e565b90506119b1828261196a565b919050565b600067ffffffffffffffff8211156119d1576119d061193b565b5b6119da8261192a565b9050602081019050919050565b82818337600083830152505050565b6000611a09611a04846119b6565b61199b565b905082815260208101848484011115611a2557611a24611925565b5b611a308482856119e7565b509392505050565b600082601f830112611a4d57611a4c611920565b5b8135611a5d8482602086016119f6565b91505092915050565b60008060008060808587031215611a8057611a7f611818565b5b600085013567ffffffffffffffff811115611a9e57611a9d61181d565b5b611aaa87828801611a38565b945050602085013567ffffffffffffffff811115611acb57611aca61181d565b5b611ad787828801611a38565b9350506040611ae887828801611843565b9250506060611af987828801611843565b91505092959194509250565b60008115159050919050565b611b1a81611b05565b82525050565b6000602082019050611b356000830184611b11565b92915050565b600060208284031215611b5157611b50611818565b5b6000611b5f84828501611843565b91505092915050565b600081519050919050565b60005b83811015611b91578082015181840152602081019050611b76565b83811115611ba0576000848401525b50505050565b6000611bb182611b68565b611bbb8185611791565b9350611bcb818560208601611b73565b611bd48161192a565b840191505092915050565b7f4e487b7100000000000000000000000000000000000000000000000000000000600052602160045260246000fd5b60058110611c1f57611c1e611bdf565b5b50565b6000819050611c3082611c0e565b919050565b6000611c4082611c22565b9050919050565b611c5081611c35565b82525050565b60028110611c6757611c66611bdf565b5b50565b6000819050611c7882611c56565b919050565b6000611c8882611c6a565b9050919050565b611c9881611c7d565b82525050565b611ca781611878565b82525050565b600061018082019050611cc3600083018f6118f6565b8181036020830152611cd5818e611ba6565b90508181036040830152611ce9818d611ba6565b9050611cf8606083018c6118f6565b611d05608083018b6118f6565b611d1260a083018a6118f6565b611d1f60c08301896118f6565b611d2c60e08301886118f6565b611d3a610100830187611c47565b611d48610120830186611c8f565b611d56610140830185611c9e565b611d64610160830184611c9e565b9d9c50505050505050505050505050565b60008060408385031215611d8c57611d8b611818565b5b6000611d9a85828601611843565b9250506020611dab85828601611843565b9150509250929050565b6000602082019050611dca6000830184611c9e565b92915050565b6000606082019050611de56000830186611c47565b611df26020830185611c9e565b611dff60408301846118f6565b949350505050565b600081519050919050565b600082825260208201905092915050565b6000819050602082019050919050565b611e3c81611878565b82525050565b6000611e4e8383611e33565b60208301905092915050565b6000602082019050919050565b6000611e7282611e07565b611e7c8185611e12565b9350611e8783611e23565b8060005b83811015611eb8578151611e9f8882611e42565b9750611eaa83611e5a565b925050600181019050611e8b565b5085935050505092915050565b60006020820190508181036000830152611edf8184611e67565b905092915050565b600060208284031215611efd57611efc611818565b5b6000611f0b848285016118a1565b91505092915050565b7f4c6f62627920646f6573206e6f74206578697374000000000000000000000000600082015250565b6000611f4a601483611791565b9150611f5582611f14565b602082019050919050565b60006020820190508181036000830152611f7981611f3d565b9050919050565b7f4f6e6c79206c6f6262792063726561746f722063616e2065786563757465207460008201527f6869730000000000000000000000000000000000000000000000000000000000602082015250565b6000611fdc602383611791565b9150611fe782611f80565b604082019050919050565b6000602082019050818103600083015261200b81611fcf565b9050919050565b7f4c6f626279206e6f7420696e2070726f67726573730000000000000000000000600082015250565b6000612048601583611791565b915061205382612012565b602082019050919050565b600060208201905081810360008301526120778161203b565b9050919050565b7f57696e6e6572206e6f7420696e2074686973206c6f6262790000000000000000600082015250565b60006120b4601883611791565b91506120bf8261207e565b602082019050919050565b600060208201905081810360008301526120e3816120a7565b9050919050565b7f416c726561647920646973747269627574656400000000000000000000000000600082015250565b6000612120601383611791565b915061212b826120ea565b602082019050919050565b6000602082019050818103600083015261214f81612113565b9050919050565b7f4e487b7100000000000000000000000000000000000000000000000000000000600052601160045260246000fd5b600061219082611822565b915061219b83611822565b9250827fffffffffffffffffffffffffffffffffffffffffffffffffffffffffffffffff038211156121d0576121cf612156565b5b828201905092915050565b7f4c6f626279206e6f742065787069726564207965740000000000000000000000600082015250565b6000612211601583611791565b915061221c826121db565b602082019050919050565b6000602082019050818103600083015261224081612204565b9050919050565b7f4e6f207072697a6520746f206469737472696275746500000000000000000000600082015250565b600061227d601683611791565b915061228882612247565b602082019050919050565b600060208201905081810360008301526122ac81612270565b9050919050565b600081905092915050565b50565b60006122ce6000836122b3565b91506122d9826122be565b600082019050919050565b60006122ef826122c1565b9150819050919050565b7f5072697a65207472616e73666572206661696c65640000000000000000000000600082015250565b600061232f601583611791565b915061233a826122f9565b602082019050919050565b6000602082019050818103600083015261235e81612322565b9050919050565b600060408201905061237a6000830185611c9e565b61238760208301846118f6565b9392505050565b7f4c6f626279206e616d652063616e6e6f7420626520656d707479000000000000600082015250565b60006123c4601a83611791565b91506123cf8261238e565b602082019050919050565b600060208201905081810360008301526123f3816123b7565b9050919050565b7f43617465676f72792063616e6e6f7420626520656d7074790000000000000000600082015250565b6000612430601883611791565b915061243b826123fa565b602082019050919050565b6000602082019050818103600083015261245f81612423565b9050919050565b7f456e74727920666565206d7573742062652067726561746572207468616e2030600082015250565b600061249c602083611791565b91506124a782612466565b602082019050919050565b600060208201905081810360008301526124cb8161248f565b9050919050565b7f496e76616c6964206d617820706c617965727300000000000000000000000000600082015250565b6000612508601383611791565b9150612513826124d2565b602082019050919050565b60006020820190508181036000830152612537816124fb565b9050919050565b600061254982611822565b91507fffffffffffffffffffffffffffffffffffffffffffffffffffffffffffffffff82141561257c5761257b612156565b5b600182019050919050565b600060a08201905081810360008301526125a18188611ba6565b905081810360208301526125b58187611ba6565b90506125c460408301866118f6565b6125d160608301856118f6565b6125de6080830184611c9e565b9695505050505050565b7f4e487b7100000000000000000000000000000000000000000000000000000000600052603260045260246000fd5b7f4e487b7100000000000000000000000000000000000000000000000000000000600052602260045260246000fd5b6000600282049050600182168061265e57607f821691505b6020821081141561267257612671612617565b5b50919050565b7f526573756c7473206e6f7420617661696c61626c652079657400000000000000600082015250565b60006126ae601983611791565b91506126b982612678565b602082019050919050565b600060208201905081810360008301526126dd816126a1565b9050919050565b7f4c6f626279206e6f74206f70656e000000000000000000000000000000000000600082015250565b600061271a600e83611791565b9150612725826126e4565b602082019050919050565b600060208201905081810360008301526127498161270d565b9050919050565b7f496e636f727265637420656e7472792066656500000000000000000000000000600082015250565b6000612786601383611791565b915061279182612750565b602082019050919050565b600060208201905081810360008301526127b581612779565b9050919050565b7f4c6f6262792066756c6c00000000000000000000000000000000000000000000600082015250565b60006127f2600a83611791565b91506127fd826127bc565b602082019050919050565b60006020820190508181036000830152612821816127e5565b9050919050565b7f4c6f626279206578706972656400000000000000000000000000000000000000600082015250565b600061285e600d83611791565b915061286982612828565b602082019050919050565b6000602082019050818103600083015261288d81612851565b9050919050565b7f43726561746f722063616e6e6f74206a6f696e2074686973206c6f6262790000600082015250565b60006128ca601e83611791565b91506128d582612894565b602082019050919050565b600060208201905081810360008301526128f9816128bd565b9050919050565b7f4f776e61626c653a206e6577206f776e657220697320746865207a65726f206160008201527f6464726573730000000000000000000000000000000000000000000000000000602082015250565b600061295c602683611791565b915061296782612900565b604082019050919050565b6000602082019050818103600083015261298b8161294f565b9050919050565b7f5265656e7472616e637947756172643a207265656e7472616e742063616c6c00600082015250565b60006129c8601f83611791565b91506129d382612992565b602082019050919050565b600060208201905081810360008301526129f7816129bb565b9050919050565b7f4f776e61626c653a2063616c6c6572206973206e6f7420746865206f776e6572600082015250565b6000612a34602083611791565b9150612a3f826129fe565b602082019050919050565b60006020820190508181036000830152612a6381612a27565b905091905056fea2646970667358221220fb2b9e1b650da2fa27c69e390375757c37c2545430871592938922dc6b13647364736f6c634300080a0033","opcodes":"PUSH1 0x80 PUSH1 0x40 MSTORE CALLVALUE DUP1 ISZERO PUSH3 0x11 JUMPI PUSH1 0x0 DUP1 REVERT JUMPDEST POP PUSH1 0x1 PUSH1 0x0 DUP2 SWAP1 SSTORE POP PUSH3 0x3A PUSH3 0x2E PUSH3 0x40 PUSH1 0x20 SHL PUSH1 0x20 SHR JUMP JUMPDEST PUSH3 0x48 PUSH1 0x20 SHL PUSH1 0x20 SHR JUMP JUMPDEST PUSH3 0x10E JUMP JUMPDEST PUSH1 0x0 CALLER SWAP1 POP SWAP1 JUMP JUMPDEST PUSH1 0x0 PUSH1 0x1 PUSH1 0x0 SWAP1 SLOAD SWAP1 PUSH2 0x100 EXP SWAP1 DIV PUSH20 0xFFFFFFFFFFFFFFFFFFFFFFFFFFFFFFFFFFFFFFFF AND SWAP1 POP DUP2 PUSH1 0x1 PUSH1 0x0 PUSH2 0x100 EXP DUP2 SLOAD DUP2 PUSH20 0xFFFFFFFFFFFFFFFFFFFFFFFFFFFFFFFFFFFFFFFF MUL NOT AND SWAP1 DUP4 PUSH20 0xFFFFFFFFFFFFFFFFFFFFFFFFFFFFFFFFFFFFFFFF AND MUL OR SWAP1 SSTORE POP DUP2 PUSH20 0xFFFFFFFFFFFFFFFFFFFFFFFFFFFFFFFFFFFFFFFF AND DUP2 PUSH20 0xFFFFFFFFFFFFFFFFFFFFFFFFFFFFFFFFFFFFFFFF AND PUSH32 0x8BE0079C531659141344CD1FD0A4F28419497F9722A3DAAFE3B4186F6B6457E0 PUSH1 0x40 MLOAD PUSH1 0x40 MLOAD DUP1 SWAP2 SUB SWAP1 LOG3 POP POP JUMP JUMPDEST PUSH2 0x2AA0 DUP1 PUSH3 0x11E PUSH1 0x0 CODECOPY PUSH1 0x0 RETURN INVALID PUSH1 0x80 PUSH1 0x40 MSTORE PUSH1 0x4 CALLDATASIZE LT PUSH2 0xEB JUMPI PUSH1 0x0 CALLDATALOAD PUSH1 0xE0 SHR DUP1 PUSH4 0x869BB51B GT PUSH2 0x8A JUMPI DUP1 PUSH4 0xC309B1E3 GT PUSH2 0x59 JUMPI DUP1 PUSH4 0xC309B1E3 EQ PUSH2 0x37E JUMPI DUP1 PUSH4 0xD85CDCB6 EQ PUSH2 0x3A9 JUMPI DUP1 PUSH4 0xE9173B3A EQ PUSH2 0x3E6 JUMPI DUP1 PUSH4 0xF2FDE38B EQ PUSH2 0x402 JUMPI PUSH2 0x12B JUMP JUMPDEST DUP1 PUSH4 0x869BB51B EQ PUSH2 0x2AC JUMPI DUP1 PUSH4 0x8DA5CB5B EQ PUSH2 0x2E9 JUMPI DUP1 PUSH4 0x8E9BE6F6 EQ PUSH2 0x314 JUMPI DUP1 PUSH4 0xA16353BF EQ PUSH2 0x353 JUMPI PUSH2 0x12B JUMP JUMPDEST DUP1 PUSH4 0x559AB8CC GT PUSH2 0xC6 JUMPI DUP1 PUSH4 0x559AB8CC EQ PUSH2 0x1D3 JUMPI DUP1 PUSH4 0x6E8FB4C6 EQ PUSH2 0x210 JUMPI DUP1 PUSH4 0x715018A6 EQ PUSH2 0x258 JUMPI DUP1 PUSH4 0x729F767D EQ PUSH2 0x26F JUMPI PUSH2 0x12B JUMP JUMPDEST DUP1 PUSH3 0x200E27 EQ PUSH2 0x130 JUMPI DUP1 PUSH4 0xCC46BA7 EQ PUSH2 0x16D JUMPI DUP1 PUSH4 0x2A14EBB4 EQ PUSH2 0x196 JUMPI PUSH2 0x12B JUMP JUMPDEST CALLDATASIZE PUSH2 0x12B JUMPI PUSH1 0x40 MLOAD PUSH32 0x8C379A000000000000000000000000000000000000000000000000000000000 DUP2 MSTORE PUSH1 0x4 ADD PUSH2 0x122 SWAP1 PUSH2 0x17EE JUMP JUMPDEST PUSH1 0x40 MLOAD DUP1 SWAP2 SUB SWAP1 REVERT JUMPDEST PUSH1 0x0 DUP1 REVERT JUMPDEST CALLVALUE DUP1 ISZERO PUSH2 0x13C JUMPI PUSH1 0x0 DUP1 REVERT JUMPDEST POP PUSH2 0x157 PUSH1 0x4 DUP1 CALLDATASIZE SUB DUP2 ADD SWAP1 PUSH2 0x152 SWAP2 SWAP1 PUSH2 0x18B6 JUMP JUMPDEST PUSH2 0x42B JUMP JUMPDEST PUSH1 0x40 MLOAD PUSH2 0x164 SWAP2 SWAP1 PUSH2 0x1905 JUMP JUMPDEST PUSH1 0x40 MLOAD DUP1 SWAP2 SUB SWAP1 RETURN JUMPDEST CALLVALUE DUP1 ISZERO PUSH2 0x179 JUMPI PUSH1 0x0 DUP1 REVERT JUMPDEST POP PUSH2 0x194 PUSH1 0x4 DUP1 CALLDATASIZE SUB DUP2 ADD SWAP1 PUSH2 0x18F SWAP2 SWAP1 PUSH2 0x18B6 JUMP JUMPDEST PUSH2 0x450 JUMP JUMPDEST STOP JUMPDEST CALLVALUE DUP1 ISZERO PUSH2 0x1A2 JUMPI PUSH1 0x0 DUP1 REVERT JUMPDEST POP PUSH2 0x1BD PUSH1 0x4 DUP1 CALLDATASIZE SUB DUP2 ADD SWAP1 PUSH2 0x1B8 SWAP2 SWAP1 PUSH2 0x1A66 JUMP JUMPDEST PUSH2 0x8D0 JUMP JUMPDEST PUSH1 0x40 MLOAD PUSH2 0x1CA SWAP2 SWAP1 PUSH2 0x1905 JUMP JUMPDEST PUSH1 0x40 MLOAD DUP1 SWAP2 SUB SWAP1 RETURN JUMPDEST CALLVALUE DUP1 ISZERO PUSH2 0x1DF JUMPI PUSH1 0x0 DUP1 REVERT JUMPDEST POP PUSH2 0x1FA PUSH1 0x4 DUP1 CALLDATASIZE SUB DUP2 ADD SWAP1 PUSH2 0x1F5 SWAP2 SWAP1 PUSH2 0x18B6 JUMP JUMPDEST PUSH2 0xB5E JUMP JUMPDEST PUSH1 0x40 MLOAD PUSH2 0x207 SWAP2 SWAP1 PUSH2 0x1B20 JUMP JUMPDEST PUSH1 0x40 MLOAD DUP1 SWAP2 SUB SWAP1 RETURN JUMPDEST CALLVALUE DUP1 ISZERO PUSH2 0x21C JUMPI PUSH1 0x0 DUP1 REVERT JUMPDEST POP PUSH2 0x237 PUSH1 0x4 DUP1 CALLDATASIZE SUB DUP2 ADD SWAP1 PUSH2 0x232 SWAP2 SWAP1 PUSH2 0x1B3B JUMP JUMPDEST PUSH2 0xC24 JUMP JUMPDEST PUSH1 0x40 MLOAD PUSH2 0x24F SWAP13 SWAP12 SWAP11 SWAP10 SWAP9 SWAP8 SWAP7 SWAP6 SWAP5 SWAP4 SWAP3 SWAP2 SWAP1 PUSH2 0x1CAD JUMP JUMPDEST PUSH1 0x40 MLOAD DUP1 SWAP2 SUB SWAP1 RETURN JUMPDEST CALLVALUE DUP1 ISZERO PUSH2 0x264 JUMPI PUSH1 0x0 DUP1 REVERT JUMPDEST POP PUSH2 0x26D PUSH2 0xDEE JUMP JUMPDEST STOP JUMPDEST CALLVALUE DUP1 ISZERO PUSH2 0x27B JUMPI PUSH1 0x0 DUP1 REVERT JUMPDEST POP PUSH2 0x296 PUSH1 0x4 DUP1 CALLDATASIZE SUB DUP2 ADD SWAP1 PUSH2 0x291 SWAP2 SWAP1 PUSH2 0x1B3B JUMP JUMPDEST PUSH2 0xE02 JUMP JUMPDEST PUSH1 0x40 MLOAD PUSH2 0x2A3 SWAP2 SWAP1 PUSH2 0x1B20 JUMP JUMPDEST PUSH1 0x40 MLOAD DUP1 SWAP2 SUB SWAP1 RETURN JUMPDEST CALLVALUE DUP1 ISZERO PUSH2 0x2B8 JUMPI PUSH1 0x0 DUP1 REVERT JUMPDEST POP PUSH2 0x2D3 PUSH1 0x4 DUP1 CALLDATASIZE SUB DUP2 ADD SWAP1 PUSH2 0x2CE SWAP2 SWAP1 PUSH2 0x1D75 JUMP JUMPDEST PUSH2 0xE22 JUMP JUMPDEST PUSH1 0x40 MLOAD PUSH2 0x2E0 SWAP2 SWAP1 PUSH2 0x1DB5 JUMP JUMPDEST PUSH1 0x40 MLOAD DUP1 SWAP2 SUB SWAP1 RETURN JUMPDEST CALLVALUE DUP1 ISZERO PUSH2 0x2F5 JUMPI PUSH1 0x0 DUP1 REVERT JUMPDEST POP PUSH2 0x2FE PUSH2 0xE70 JUMP JUMPDEST PUSH1 0x40 MLOAD PUSH2 0x30B SWAP2 SWAP1 PUSH2 0x1DB5 JUMP JUMPDEST PUSH1 0x40 MLOAD DUP1 SWAP2 SUB SWAP1 RETURN JUMPDEST CALLVALUE DUP1 ISZERO PUSH2 0x320 JUMPI PUSH1 0x0 DUP1 REVERT JUMPDEST POP PUSH2 0x33B PUSH1 0x4 DUP1 CALLDATASIZE SUB DUP2 ADD SWAP1 PUSH2 0x336 SWAP2 SWAP1 PUSH2 0x1B3B JUMP JUMPDEST PUSH2 0xE9A JUMP JUMPDEST PUSH1 0x40 MLOAD PUSH2 0x34A SWAP4 SWAP3 SWAP2 SWAP1 PUSH2 0x1DD0 JUMP JUMPDEST PUSH1 0x40 MLOAD DUP1 SWAP2 SUB SWAP1 RETURN JUMPDEST CALLVALUE DUP1 ISZERO PUSH2 0x35F JUMPI PUSH1 0x0 DUP1 REVERT JUMPDEST POP PUSH2 0x368 PUSH2 0xFDA JUMP JUMPDEST PUSH1 0x40 MLOAD PUSH2 0x375 SWAP2 SWAP1 PUSH2 0x1905 JUMP JUMPDEST PUSH1 0x40 MLOAD DUP1 SWAP2 SUB SWAP1 RETURN JUMPDEST CALLVALUE DUP1 ISZERO PUSH2 0x38A JUMPI PUSH1 0x0 DUP1 REVERT JUMPDEST POP PUSH2 0x393 PUSH2 0xFE0 JUMP JUMPDEST PUSH1 0x40 MLOAD PUSH2 0x3A0 SWAP2 SWAP1 PUSH2 0x1905 JUMP JUMPDEST PUSH1 0x40 MLOAD DUP1 SWAP2 SUB SWAP1 RETURN JUMPDEST CALLVALUE DUP1 ISZERO PUSH2 0x3B5 JUMPI PUSH1 0x0 DUP1 REVERT JUMPDEST POP PUSH2 0x3D0 PUSH1 0x4 DUP1 CALLDATASIZE SUB DUP2 ADD SWAP1 PUSH2 0x3CB SWAP2 SWAP1 PUSH2 0x1B3B JUMP JUMPDEST PUSH2 0xFE6 JUMP JUMPDEST PUSH1 0x40 MLOAD PUSH2 0x3DD SWAP2 SWAP1 PUSH2 0x1EC5 JUMP JUMPDEST PUSH1 0x40 MLOAD DUP1 SWAP2 SUB SWAP1 RETURN JUMPDEST PUSH2 0x400 PUSH1 0x4 DUP1 CALLDATASIZE SUB DUP2 ADD SWAP1 PUSH2 0x3FB SWAP2 SWAP1 PUSH2 0x1B3B JUMP JUMPDEST PUSH2 0x10D0 JUMP JUMPDEST STOP JUMPDEST CALLVALUE DUP1 ISZERO PUSH2 0x40E JUMPI PUSH1 0x0 DUP1 REVERT JUMPDEST POP PUSH2 0x429 PUSH1 0x4 DUP1 CALLDATASIZE SUB DUP2 ADD SWAP1 PUSH2 0x424 SWAP2 SWAP1 PUSH2 0x1EE7 JUMP JUMPDEST PUSH2 0x14C4 JUMP JUMPDEST STOP JUMPDEST PUSH1 0x3 PUSH1 0x20 MSTORE DUP2 PUSH1 0x0 MSTORE PUSH1 0x40 PUSH1 0x0 KECCAK256 PUSH1 0x20 MSTORE DUP1 PUSH1 0x0 MSTORE PUSH1 0x40 PUSH1 0x0 KECCAK256 PUSH1 0x0 SWAP2 POP SWAP2 POP POP SLOAD DUP2 JUMP JUMPDEST PUSH2 0x458 PUSH2 0x1548 JUMP JUMPDEST DUP2 PUSH1 0x6 SLOAD DUP2 LT PUSH2 0x49D JUMPI PUSH1 0x40 MLOAD PUSH32 0x8C379A000000000000000000000000000000000000000000000000000000000 DUP2 MSTORE PUSH1 0x4 ADD PUSH2 0x494 SWAP1 PUSH2 0x1F60 JUMP JUMPDEST PUSH1 0x40 MLOAD DUP1 SWAP2 SUB SWAP1 REVERT JUMPDEST DUP3 PUSH1 0x2 PUSH1 0x0 DUP3 DUP2 MSTORE PUSH1 0x20 ADD SWAP1 DUP2 MSTORE PUSH1 0x20 ADD PUSH1 0x0 KECCAK256 PUSH1 0xB ADD PUSH1 0x0 SWAP1 SLOAD SWAP1 PUSH2 0x100 EXP SWAP1 DIV PUSH20 0xFFFFFFFFFFFFFFFFFFFFFFFFFFFFFFFFFFFFFFFF AND PUSH20 0xFFFFFFFFFFFFFFFFFFFFFFFFFFFFFFFFFFFFFFFF AND CALLER PUSH20 0xFFFFFFFFFFFFFFFFFFFFFFFFFFFFFFFFFFFFFFFF AND EQ PUSH2 0x542 JUMPI PUSH1 0x40 MLOAD PUSH32 0x8C379A000000000000000000000000000000000000000000000000000000000 DUP2 MSTORE PUSH1 0x4 ADD PUSH2 0x539 SWAP1 PUSH2 0x1FF2 JUMP JUMPDEST PUSH1 0x40 MLOAD DUP1 SWAP2 SUB SWAP1 REVERT JUMPDEST PUSH1 0x0 PUSH1 0x2 PUSH1 0x0 DUP7 DUP2 MSTORE PUSH1 0x20 ADD SWAP1 DUP2 MSTORE PUSH1 0x20 ADD PUSH1 0x0 KECCAK256 SWAP1 POP PUSH1 0x2 PUSH1 0x4 DUP2 GT ISZERO PUSH2 0x56D JUMPI PUSH2 0x56C PUSH2 0x1BDF JUMP JUMPDEST JUMPDEST DUP2 PUSH1 0x8 ADD PUSH1 0x0 SWAP1 SLOAD SWAP1 PUSH2 0x100 EXP SWAP1 DIV PUSH1 0xFF AND PUSH1 0x4 DUP2 GT ISZERO PUSH2 0x591 JUMPI PUSH2 0x590 PUSH2 0x1BDF JUMP JUMPDEST JUMPDEST EQ PUSH2 0x5D1 JUMPI PUSH1 0x40 MLOAD PUSH32 0x8C379A000000000000000000000000000000000000000000000000000000000 DUP2 MSTORE PUSH1 0x4 ADD PUSH2 0x5C8 SWAP1 PUSH2 0x205E JUMP JUMPDEST PUSH1 0x40 MLOAD DUP1 SWAP2 SUB SWAP1 REVERT JUMPDEST PUSH2 0x5DB DUP6 DUP6 PUSH2 0xB5E JUMP JUMPDEST PUSH2 0x61A JUMPI PUSH1 0x40 MLOAD PUSH32 0x8C379A000000000000000000000000000000000000000000000000000000000 DUP2 MSTORE PUSH1 0x4 ADD PUSH2 0x611 SWAP1 PUSH2 0x20CA JUMP JUMPDEST PUSH1 0x40 MLOAD DUP1 SWAP2 SUB SWAP1 REVERT JUMPDEST PUSH1 0x0 PUSH1 0x1 DUP2 GT ISZERO PUSH2 0x62E JUMPI PUSH2 0x62D PUSH2 0x1BDF JUMP JUMPDEST JUMPDEST DUP2 PUSH1 0x8 ADD PUSH1 0x1 SWAP1 SLOAD SWAP1 PUSH2 0x100 EXP SWAP1 DIV PUSH1 0xFF AND PUSH1 0x1 DUP2 GT ISZERO PUSH2 0x652 JUMPI PUSH2 0x651 PUSH2 0x1BDF JUMP JUMPDEST JUMPDEST EQ PUSH2 0x692 JUMPI PUSH1 0x40 MLOAD PUSH32 0x8C379A000000000000000000000000000000000000000000000000000000000 DUP2 MSTORE PUSH1 0x4 ADD PUSH2 0x689 SWAP1 PUSH2 0x2136 JUMP JUMPDEST PUSH1 0x40 MLOAD DUP1 SWAP2 SUB SWAP1 REVERT JUMPDEST PUSH2 0x12C DUP2 PUSH1 0x7 ADD SLOAD PUSH2 0x6A4 SWAP2 SWAP1 PUSH2 0x2185 JUMP JUMPDEST TIMESTAMP LT ISZERO PUSH2 0x6E6 JUMPI PUSH1 0x40 MLOAD PUSH32 0x8C379A000000000000000000000000000000000000000000000000000000000 DUP2 MSTORE PUSH1 0x4 ADD PUSH2 0x6DD SWAP1 PUSH2 0x2227 JUMP JUMPDEST PUSH1 0x40 MLOAD DUP1 SWAP2 SUB SWAP1 REVERT JUMPDEST PUSH1 0x3 DUP2 PUSH1 0x8 ADD PUSH1 0x0 PUSH2 0x100 EXP DUP2 SLOAD DUP2 PUSH1 0xFF MUL NOT AND SWAP1 DUP4 PUSH1 0x4 DUP2 GT ISZERO PUSH2 0x70E JUMPI PUSH2 0x70D PUSH2 0x1BDF JUMP JUMPDEST JUMPDEST MUL OR SWAP1 SSTORE POP DUP4 DUP2 PUSH1 0xA ADD PUSH1 0x0 PUSH2 0x100 EXP DUP2 SLOAD DUP2 PUSH20 0xFFFFFFFFFFFFFFFFFFFFFFFFFFFFFFFFFFFFFFFF MUL NOT AND SWAP1 DUP4 PUSH20 0xFFFFFFFFFFFFFFFFFFFFFFFFFFFFFFFFFFFFFFFF AND MUL OR SWAP1 SSTORE POP PUSH1 0x1 DUP2 PUSH1 0x8 ADD PUSH1 0x1 PUSH2 0x100 EXP DUP2 SLOAD DUP2 PUSH1 0xFF MUL NOT AND SWAP1 DUP4 PUSH1 0x1 DUP2 GT ISZERO PUSH2 0x77E JUMPI PUSH2 0x77D PUSH2 0x1BDF JUMP JUMPDEST JUMPDEST MUL OR SWAP1 SSTORE POP PUSH1 0x0 DUP2 PUSH1 0x6 ADD SLOAD SWAP1 POP PUSH1 0x0 DUP2 GT PUSH2 0x7CF JUMPI PUSH1 0x40 MLOAD PUSH32 0x8C379A000000000000000000000000000000000000000000000000000000000 DUP2 MSTORE PUSH1 0x4 ADD PUSH2 0x7C6 SWAP1 PUSH2 0x2293 JUMP JUMPDEST PUSH1 0x40 MLOAD DUP1 SWAP2 SUB SWAP1 REVERT JUMPDEST PUSH1 0x0 DUP3 PUSH1 0x6 ADD DUP2 SWAP1 SSTORE POP PUSH1 0x0 DUP6 PUSH20 0xFFFFFFFFFFFFFFFFFFFFFFFFFFFFFFFFFFFFFFFF AND DUP3 PUSH1 0x40 MLOAD PUSH2 0x7FF SWAP1 PUSH2 0x22E4 JUMP JUMPDEST PUSH1 0x0 PUSH1 0x40 MLOAD DUP1 DUP4 SUB DUP2 DUP6 DUP8 GAS CALL SWAP3 POP POP POP RETURNDATASIZE DUP1 PUSH1 0x0 DUP2 EQ PUSH2 0x83C JUMPI PUSH1 0x40 MLOAD SWAP2 POP PUSH1 0x1F NOT PUSH1 0x3F RETURNDATASIZE ADD AND DUP3 ADD PUSH1 0x40 MSTORE RETURNDATASIZE DUP3 MSTORE RETURNDATASIZE PUSH1 0x0 PUSH1 0x20 DUP5 ADD RETURNDATACOPY PUSH2 0x841 JUMP JUMPDEST PUSH1 0x60 SWAP2 POP JUMPDEST POP POP SWAP1 POP DUP1 PUSH2 0x885 JUMPI PUSH1 0x40 MLOAD PUSH32 0x8C379A000000000000000000000000000000000000000000000000000000000 DUP2 MSTORE PUSH1 0x4 ADD PUSH2 0x87C SWAP1 PUSH2 0x2345 JUMP JUMPDEST PUSH1 0x40 MLOAD DUP1 SWAP2 SUB SWAP1 REVERT JUMPDEST DUP7 PUSH32 0x5D36374A8D1A6CAE8E46381AEA50CAE98B85E5EDE9E10916D26179527900E520 DUP8 DUP5 PUSH1 0x40 MLOAD PUSH2 0x8B7 SWAP3 SWAP2 SWAP1 PUSH2 0x2365 JUMP JUMPDEST PUSH1 0x40 MLOAD DUP1 SWAP2 SUB SWAP1 LOG2 POP POP POP POP POP PUSH2 0x8CC PUSH2 0x1598 JUMP JUMPDEST POP POP JUMP JUMPDEST PUSH1 0x0 DUP1 DUP6 MLOAD GT PUSH2 0x915 JUMPI PUSH1 0x40 MLOAD PUSH32 0x8C379A000000000000000000000000000000000000000000000000000000000 DUP2 MSTORE PUSH1 0x4 ADD PUSH2 0x90C SWAP1 PUSH2 0x23DA JUMP JUMPDEST PUSH1 0x40 MLOAD DUP1 SWAP2 SUB SWAP1 REVERT JUMPDEST PUSH1 0x0 DUP5 MLOAD GT PUSH2 0x959 JUMPI PUSH1 0x40 MLOAD PUSH32 0x8C379A000000000000000000000000000000000000000000000000000000000 DUP2 MSTORE PUSH1 0x4 ADD PUSH2 0x950 SWAP1 PUSH2 0x2446 JUMP JUMPDEST PUSH1 0x40 MLOAD DUP1 SWAP2 SUB SWAP1 REVERT JUMPDEST PUSH1 0x0 DUP4 GT PUSH2 0x99C JUMPI PUSH1 0x40 MLOAD PUSH32 0x8C379A000000000000000000000000000000000000000000000000000000000 DUP2 MSTORE PUSH1 0x4 ADD PUSH2 0x993 SWAP1 PUSH2 0x24B2 JUMP JUMPDEST PUSH1 0x40 MLOAD DUP1 SWAP2 SUB SWAP1 REVERT JUMPDEST PUSH1 0x1 DUP3 GT DUP1 ISZERO PUSH2 0x9AD JUMPI POP PUSH1 0xA DUP3 GT ISZERO JUMPDEST PUSH2 0x9EC JUMPI PUSH1 0x40 MLOAD PUSH32 0x8C379A000000000000000000000000000000000000000000000000000000000 DUP2 MSTORE PUSH1 0x4 ADD PUSH2 0x9E3 SWAP1 PUSH2 0x251E JUMP JUMPDEST PUSH1 0x40 MLOAD DUP1 SWAP2 SUB SWAP1 REVERT JUMPDEST PUSH1 0x0 PUSH1 0x6 PUSH1 0x0 DUP2 SLOAD DUP1 SWAP3 SWAP2 SWAP1 PUSH2 0xA01 SWAP1 PUSH2 0x253E JUMP JUMPDEST SWAP2 SWAP1 POP SSTORE SWAP1 POP PUSH1 0x0 PUSH1 0x2 PUSH1 0x0 DUP4 DUP2 MSTORE PUSH1 0x20 ADD SWAP1 DUP2 MSTORE PUSH1 0x20 ADD PUSH1 0x0 KECCAK256 SWAP1 POP DUP2 DUP2 PUSH1 0x0 ADD DUP2 SWAP1 SSTORE POP DUP7 DUP2 PUSH1 0x1 ADD SWAP1 DUP1 MLOAD SWAP1 PUSH1 0x20 ADD SWAP1 PUSH2 0xA3F SWAP3 SWAP2 SWAP1 PUSH2 0x16EE JUMP JUMPDEST POP DUP6 DUP2 PUSH1 0x2 ADD SWAP1 DUP1 MLOAD SWAP1 PUSH1 0x20 ADD SWAP1 PUSH2 0xA58 SWAP3 SWAP2 SWAP1 PUSH2 0x16EE JUMP JUMPDEST POP DUP5 DUP2 PUSH1 0x3 ADD DUP2 SWAP1 SSTORE POP DUP4 DUP2 PUSH1 0x5 ADD DUP2 SWAP1 SSTORE POP TIMESTAMP DUP2 PUSH1 0x7 ADD DUP2 SWAP1 SSTORE POP PUSH1 0x0 DUP2 PUSH1 0x8 ADD PUSH1 0x0 PUSH2 0x100 EXP DUP2 SLOAD DUP2 PUSH1 0xFF MUL NOT AND SWAP1 DUP4 PUSH1 0x4 DUP2 GT ISZERO PUSH2 0xA9C JUMPI PUSH2 0xA9B PUSH2 0x1BDF JUMP JUMPDEST JUMPDEST MUL OR SWAP1 SSTORE POP PUSH1 0x0 DUP2 PUSH1 0x8 ADD PUSH1 0x1 PUSH2 0x100 EXP DUP2 SLOAD DUP2 PUSH1 0xFF MUL NOT AND SWAP1 DUP4 PUSH1 0x1 DUP2 GT ISZERO PUSH2 0xAC9 JUMPI PUSH2 0xAC8 PUSH2 0x1BDF JUMP JUMPDEST JUMPDEST MUL OR SWAP1 SSTORE POP CALLER DUP2 PUSH1 0xB ADD PUSH1 0x0 PUSH2 0x100 EXP DUP2 SLOAD DUP2 PUSH20 0xFFFFFFFFFFFFFFFFFFFFFFFFFFFFFFFFFFFFFFFF MUL NOT AND SWAP1 DUP4 PUSH20 0xFFFFFFFFFFFFFFFFFFFFFFFFFFFFFFFFFFFFFFFF AND MUL OR SWAP1 SSTORE POP DUP2 PUSH32 0xE2B64F820C6349CE53D20FAA9C7EBA7858AE3C3EA29CC7FBF30C50FFFCF3170 DUP9 DUP9 DUP9 DUP9 CALLER PUSH1 0x40 MLOAD PUSH2 0xB49 SWAP6 SWAP5 SWAP4 SWAP3 SWAP2 SWAP1 PUSH2 0x2587 JUMP JUMPDEST PUSH1 0x40 MLOAD DUP1 SWAP2 SUB SWAP1 LOG2 DUP2 SWAP3 POP POP POP SWAP5 SWAP4 POP POP POP POP JUMP JUMPDEST PUSH1 0x0 DUP1 PUSH1 0x2 PUSH1 0x0 DUP6 DUP2 MSTORE PUSH1 0x20 ADD SWAP1 DUP2 MSTORE PUSH1 0x20 ADD PUSH1 0x0 KECCAK256 PUSH1 0x9 ADD SWAP1 POP PUSH1 0x0 JUMPDEST DUP2 DUP1 SLOAD SWAP1 POP DUP2 LT ISZERO PUSH2 0xC17 JUMPI DUP4 PUSH20 0xFFFFFFFFFFFFFFFFFFFFFFFFFFFFFFFFFFFFFFFF AND DUP3 DUP3 DUP2 SLOAD DUP2 LT PUSH2 0xBB2 JUMPI PUSH2 0xBB1 PUSH2 0x25E8 JUMP JUMPDEST JUMPDEST SWAP1 PUSH1 0x0 MSTORE PUSH1 0x20 PUSH1 0x0 KECCAK256 ADD PUSH1 0x0 SWAP1 SLOAD SWAP1 PUSH2 0x100 EXP SWAP1 DIV PUSH20 0xFFFFFFFFFFFFFFFFFFFFFFFFFFFFFFFFFFFFFFFF AND PUSH20 0xFFFFFFFFFFFFFFFFFFFFFFFFFFFFFFFFFFFFFFFF AND EQ ISZERO PUSH2 0xC04 JUMPI PUSH1 0x1 SWAP3 POP POP POP PUSH2 0xC1E JUMP JUMPDEST DUP1 DUP1 PUSH2 0xC0F SWAP1 PUSH2 0x253E JUMP JUMPDEST SWAP2 POP POP PUSH2 0xB7C JUMP JUMPDEST POP PUSH1 0x0 SWAP2 POP POP JUMPDEST SWAP3 SWAP2 POP POP JUMP JUMPDEST PUSH1 0x2 PUSH1 0x20 MSTORE DUP1 PUSH1 0x0 MSTORE PUSH1 0x40 PUSH1 0x0 KECCAK256 PUSH1 0x0 SWAP2 POP SWAP1 POP DUP1 PUSH1 0x0 ADD SLOAD SWAP1 DUP1 PUSH1 0x1 ADD DUP1 SLOAD PUSH2 0xC4D SWAP1 PUSH2 0x2646 JUMP JUMPDEST DUP1 PUSH1 0x1F ADD PUSH1 0x20 DUP1 SWAP2 DIV MUL PUSH1 0x20 ADD PUSH1 0x40 MLOAD SWAP1 DUP2 ADD PUSH1 0x40 MSTORE DUP1 SWAP3 SWAP2 SWAP1 DUP2 DUP2 MSTORE PUSH1 0x20 ADD DUP3 DUP1 SLOAD PUSH2 0xC79 SWAP1 PUSH2 0x2646 JUMP JUMPDEST DUP1 ISZERO PUSH2 0xCC6 JUMPI DUP1 PUSH1 0x1F LT PUSH2 0xC9B JUMPI PUSH2 0x100 DUP1 DUP4 SLOAD DIV MUL DUP4 MSTORE SWAP2 PUSH1 0x20 ADD SWAP2 PUSH2 0xCC6 JUMP JUMPDEST DUP3 ADD SWAP2 SWAP1 PUSH1 0x0 MSTORE PUSH1 0x20 PUSH1 0x0 KECCAK256 SWAP1 JUMPDEST DUP2 SLOAD DUP2 MSTORE SWAP1 PUSH1 0x1 ADD SWAP1 PUSH1 0x20 ADD DUP1 DUP4 GT PUSH2 0xCA9 JUMPI DUP3 SWAP1 SUB PUSH1 0x1F AND DUP3 ADD SWAP2 JUMPDEST POP POP POP POP POP SWAP1 DUP1 PUSH1 0x2 ADD DUP1 SLOAD PUSH2 0xCDB SWAP1 PUSH2 0x2646 JUMP JUMPDEST DUP1 PUSH1 0x1F ADD PUSH1 0x20 DUP1 SWAP2 DIV MUL PUSH1 0x20 ADD PUSH1 0x40 MLOAD SWAP1 DUP2 ADD PUSH1 0x40 MSTORE DUP1 SWAP3 SWAP2 SWAP1 DUP2 DUP2 MSTORE PUSH1 0x20 ADD DUP3 DUP1 SLOAD PUSH2 0xD07 SWAP1 PUSH2 0x2646 JUMP JUMPDEST DUP1 ISZERO PUSH2 0xD54 JUMPI DUP1 PUSH1 0x1F LT PUSH2 0xD29 JUMPI PUSH2 0x100 DUP1 DUP4 SLOAD DIV MUL DUP4 MSTORE SWAP2 PUSH1 0x20 ADD SWAP2 PUSH2 0xD54 JUMP JUMPDEST DUP3 ADD SWAP2 SWAP1 PUSH1 0x0 MSTORE PUSH1 0x20 PUSH1 0x0 KECCAK256 SWAP1 JUMPDEST DUP2 SLOAD DUP2 MSTORE SWAP1 PUSH1 0x1 ADD SWAP1 PUSH1 0x20 ADD DUP1 DUP4 GT PUSH2 0xD37 JUMPI DUP3 SWAP1 SUB PUSH1 0x1F AND DUP3 ADD SWAP2 JUMPDEST POP POP POP POP POP SWAP1 DUP1 PUSH1 0x3 ADD SLOAD SWAP1 DUP1 PUSH1 0x4 ADD SLOAD SWAP1 DUP1 PUSH1 0x5 ADD SLOAD SWAP1 DUP1 PUSH1 0x6 ADD SLOAD SWAP1 DUP1 PUSH1 0x7 ADD SLOAD SWAP1 DUP1 PUSH1 0x8 ADD PUSH1 0x0 SWAP1 SLOAD SWAP1 PUSH2 0x100 EXP SWAP1 DIV PUSH1 0xFF AND SWAP1 DUP1 PUSH1 0x8 ADD PUSH1 0x1 SWAP1 SLOAD SWAP1 PUSH2 0x100 EXP SWAP1 DIV PUSH1 0xFF AND SWAP1 DUP1 PUSH1 0xA ADD PUSH1 0x0 SWAP1 SLOAD SWAP1 PUSH2 0x100 EXP SWAP1 DIV PUSH20 0xFFFFFFFFFFFFFFFFFFFFFFFFFFFFFFFFFFFFFFFF AND SWAP1 DUP1 PUSH1 0xB ADD PUSH1 0x0 SWAP1 SLOAD SWAP1 PUSH2 0x100 EXP SWAP1 DIV PUSH20 0xFFFFFFFFFFFFFFFFFFFFFFFFFFFFFFFFFFFFFFFF AND SWAP1 POP DUP13 JUMP JUMPDEST PUSH2 0xDF6 PUSH2 0x15A2 JUMP JUMPDEST PUSH2 0xE00 PUSH1 0x0 PUSH2 0x1620 JUMP JUMPDEST JUMP JUMPDEST PUSH1 0x5 PUSH1 0x20 MSTORE DUP1 PUSH1 0x0 MSTORE PUSH1 0x40 PUSH1 0x0 KECCAK256 PUSH1 0x0 SWAP2 POP SLOAD SWAP1 PUSH2 0x100 EXP SWAP1 DIV PUSH1 0xFF AND DUP2 JUMP JUMPDEST PUSH1 0x4 PUSH1 0x20 MSTORE DUP2 PUSH1 0x0 MSTORE PUSH1 0x40 PUSH1 0x0 KECCAK256 DUP2 DUP2 SLOAD DUP2 LT PUSH2 0xE3E JUMPI PUSH1 0x0 DUP1 REVERT JUMPDEST SWAP1 PUSH1 0x0 MSTORE PUSH1 0x20 PUSH1 0x0 KECCAK256 ADD PUSH1 0x0 SWAP2 POP SWAP2 POP SWAP1 SLOAD SWAP1 PUSH2 0x100 EXP SWAP1 DIV PUSH20 0xFFFFFFFFFFFFFFFFFFFFFFFFFFFFFFFFFFFFFFFF AND DUP2 JUMP JUMPDEST PUSH1 0x0 PUSH1 0x1 PUSH1 0x0 SWAP1 SLOAD SWAP1 PUSH2 0x100 EXP SWAP1 DIV PUSH20 0xFFFFFFFFFFFFFFFFFFFFFFFFFFFFFFFFFFFFFFFF AND SWAP1 POP SWAP1 JUMP JUMPDEST PUSH1 0x0 DUP1 PUSH1 0x0 DUP4 PUSH1 0x6 SLOAD DUP2 LT PUSH2 0xEE4 JUMPI PUSH1 0x40 MLOAD PUSH32 0x8C379A000000000000000000000000000000000000000000000000000000000 DUP2 MSTORE PUSH1 0x4 ADD PUSH2 0xEDB SWAP1 PUSH2 0x1F60 JUMP JUMPDEST PUSH1 0x40 MLOAD DUP1 SWAP2 SUB SWAP1 REVERT JUMPDEST PUSH1 0x0 PUSH1 0x2 PUSH1 0x0 DUP8 DUP2 MSTORE PUSH1 0x20 ADD SWAP1 DUP2 MSTORE PUSH1 0x20 ADD PUSH1 0x0 KECCAK256 SWAP1 POP PUSH2 0x12C DUP2 PUSH1 0x7 ADD SLOAD PUSH2 0xF0D SWAP2 SWAP1 PUSH2 0x2185 JUMP JUMPDEST TIMESTAMP LT ISZERO DUP1 PUSH2 0xF50 JUMPI POP PUSH1 0x3 PUSH1 0x4 DUP2 GT ISZERO PUSH2 0xF2A JUMPI PUSH2 0xF29 PUSH2 0x1BDF JUMP JUMPDEST JUMPDEST DUP2 PUSH1 0x8 ADD PUSH1 0x0 SWAP1 SLOAD SWAP1 PUSH2 0x100 EXP SWAP1 DIV PUSH1 0xFF AND PUSH1 0x4 DUP2 GT ISZERO PUSH2 0xF4E JUMPI PUSH2 0xF4D PUSH2 0x1BDF JUMP JUMPDEST JUMPDEST EQ JUMPDEST PUSH2 0xF8F JUMPI PUSH1 0x40 MLOAD PUSH32 0x8C379A000000000000000000000000000000000000000000000000000000000 DUP2 MSTORE PUSH1 0x4 ADD PUSH2 0xF86 SWAP1 PUSH2 0x26C4 JUMP JUMPDEST PUSH1 0x40 MLOAD DUP1 SWAP2 SUB SWAP1 REVERT JUMPDEST DUP1 PUSH1 0x8 ADD PUSH1 0x0 SWAP1 SLOAD SWAP1 PUSH2 0x100 EXP SWAP1 DIV PUSH1 0xFF AND DUP2 PUSH1 0xA ADD PUSH1 0x0 SWAP1 SLOAD SWAP1 PUSH2 0x100 EXP SWAP1 DIV PUSH20 0xFFFFFFFFFFFFFFFFFFFFFFFFFFFFFFFFFFFFFFFF AND DUP3 PUSH1 0x6 ADD SLOAD SWAP5 POP SWAP5 POP SWAP5 POP POP POP SWAP2 SWAP4 SWAP1 SWAP3 POP JUMP JUMPDEST PUSH2 0x12C DUP2 JUMP JUMPDEST PUSH1 0x6 SLOAD DUP2 JUMP JUMPDEST PUSH1 0x60 DUP2 PUSH1 0x6 SLOAD DUP2 LT PUSH2 0x102D JUMPI PUSH1 0x40 MLOAD PUSH32 0x8C379A000000000000000000000000000000000000000000000000000000000 DUP2 MSTORE PUSH1 0x4 ADD PUSH2 0x1024 SWAP1 PUSH2 0x1F60 JUMP JUMPDEST PUSH1 0x40 MLOAD DUP1 SWAP2 SUB SWAP1 REVERT JUMPDEST PUSH1 0x2 PUSH1 0x0 DUP5 DUP2 MSTORE PUSH1 0x20 ADD SWAP1 DUP2 MSTORE PUSH1 0x20 ADD PUSH1 0x0 KECCAK256 PUSH1 0x9 ADD DUP1 SLOAD DUP1 PUSH1 0x20 MUL PUSH1 0x20 ADD PUSH1 0x40 MLOAD SWAP1 DUP2 ADD PUSH1 0x40 MSTORE DUP1 SWAP3 SWAP2 SWAP1 DUP2 DUP2 MSTORE PUSH1 0x20 ADD DUP3 DUP1 SLOAD DUP1 ISZERO PUSH2 0x10C3 JUMPI PUSH1 0x20 MUL DUP3 ADD SWAP2 SWAP1 PUSH1 0x0 MSTORE PUSH1 0x20 PUSH1 0x0 KECCAK256 SWAP1 JUMPDEST DUP2 PUSH1 0x0 SWAP1 SLOAD SWAP1 PUSH2 0x100 EXP SWAP1 DIV PUSH20 0xFFFFFFFFFFFFFFFFFFFFFFFFFFFFFFFFFFFFFFFF AND PUSH20 0xFFFFFFFFFFFFFFFFFFFFFFFFFFFFFFFFFFFFFFFF AND DUP2 MSTORE PUSH1 0x20 ADD SWAP1 PUSH1 0x1 ADD SWAP1 DUP1 DUP4 GT PUSH2 0x1079 JUMPI JUMPDEST POP POP POP POP POP SWAP2 POP POP SWAP2 SWAP1 POP JUMP JUMPDEST PUSH2 0x10D8 PUSH2 0x1548 JUMP JUMPDEST DUP1 PUSH1 0x6 SLOAD DUP2 LT PUSH2 0x111D JUMPI PUSH1 0x40 MLOAD PUSH32 0x8C379A000000000000000000000000000000000000000000000000000000000 DUP2 MSTORE PUSH1 0x4 ADD PUSH2 0x1114 SWAP1 PUSH2 0x1F60 JUMP JUMPDEST PUSH1 0x40 MLOAD DUP1 SWAP2 SUB SWAP1 REVERT JUMPDEST PUSH1 0x0 PUSH1 0x2 PUSH1 0x0 DUP5 DUP2 MSTORE PUSH1 0x20 ADD SWAP1 DUP2 MSTORE PUSH1 0x20 ADD PUSH1 0x0 KECCAK256 SWAP1 POP PUSH1 0x0 PUSH1 0x4 DUP2 GT ISZERO PUSH2 0x1148 JUMPI PUSH2 0x1147 PUSH2 0x1BDF JUMP JUMPDEST JUMPDEST DUP2 PUSH1 0x8 ADD PUSH1 0x0 SWAP1 SLOAD SWAP1 PUSH2 0x100 EXP SWAP1 DIV PUSH1 0xFF AND PUSH1 0x4 DUP2 GT ISZERO PUSH2 0x116C JUMPI PUSH2 0x116B PUSH2 0x1BDF JUMP JUMPDEST JUMPDEST EQ DUP1 PUSH2 0x11AD JUMPI POP PUSH1 0x1 PUSH1 0x4 DUP2 GT ISZERO PUSH2 0x1187 JUMPI PUSH2 0x1186 PUSH2 0x1BDF JUMP JUMPDEST JUMPDEST DUP2 PUSH1 0x8 ADD PUSH1 0x0 SWAP1 SLOAD SWAP1 PUSH2 0x100 EXP SWAP1 DIV PUSH1 0xFF AND PUSH1 0x4 DUP2 GT ISZERO PUSH2 0x11AB JUMPI PUSH2 0x11AA PUSH2 0x1BDF JUMP JUMPDEST JUMPDEST EQ JUMPDEST PUSH2 0x11EC JUMPI PUSH1 0x40 MLOAD PUSH32 0x8C379A000000000000000000000000000000000000000000000000000000000 DUP2 MSTORE PUSH1 0x4 ADD PUSH2 0x11E3 SWAP1 PUSH2 0x2730 JUMP JUMPDEST PUSH1 0x40 MLOAD DUP1 SWAP2 SUB SWAP1 REVERT JUMPDEST DUP1 PUSH1 0x3 ADD SLOAD CALLVALUE EQ PUSH2 0x1232 JUMPI PUSH1 0x40 MLOAD PUSH32 0x8C379A000000000000000000000000000000000000000000000000000000000 DUP2 MSTORE PUSH1 0x4 ADD PUSH2 0x1229 SWAP1 PUSH2 0x279C JUMP JUMPDEST PUSH1 0x40 MLOAD DUP1 SWAP2 SUB SWAP1 REVERT JUMPDEST DUP1 PUSH1 0x5 ADD SLOAD DUP2 PUSH1 0x9 ADD DUP1 SLOAD SWAP1 POP LT PUSH2 0x127F JUMPI PUSH1 0x40 MLOAD PUSH32 0x8C379A000000000000000000000000000000000000000000000000000000000 DUP2 MSTORE PUSH1 0x4 ADD PUSH2 0x1276 SWAP1 PUSH2 0x2808 JUMP JUMPDEST PUSH1 0x40 MLOAD DUP1 SWAP2 SUB SWAP1 REVERT JUMPDEST PUSH2 0x12C DUP2 PUSH1 0x7 ADD SLOAD PUSH2 0x1291 SWAP2 SWAP1 PUSH2 0x2185 JUMP JUMPDEST TIMESTAMP GT ISZERO PUSH2 0x12D3 JUMPI PUSH1 0x40 MLOAD PUSH32 0x8C379A000000000000000000000000000000000000000000000000000000000 DUP2 MSTORE PUSH1 0x4 ADD PUSH2 0x12CA SWAP1 PUSH2 0x2874 JUMP JUMPDEST PUSH1 0x40 MLOAD DUP1 SWAP2 SUB SWAP1 REVERT JUMPDEST DUP1 PUSH1 0xB ADD PUSH1 0x0 SWAP1 SLOAD SWAP1 PUSH2 0x100 EXP SWAP1 DIV PUSH20 0xFFFFFFFFFFFFFFFFFFFFFFFFFFFFFFFFFFFFFFFF AND PUSH20 0xFFFFFFFFFFFFFFFFFFFFFFFFFFFFFFFFFFFFFFFF AND CALLER PUSH20 0xFFFFFFFFFFFFFFFFFFFFFFFFFFFFFFFFFFFFFFFF AND EQ ISZERO PUSH2 0x1366 JUMPI PUSH1 0x40 MLOAD PUSH32 0x8C379A000000000000000000000000000000000000000000000000000000000 DUP2 MSTORE PUSH1 0x4 ADD PUSH2 0x135D SWAP1 PUSH2 0x28E0 JUMP JUMPDEST PUSH1 0x40 MLOAD DUP1 SWAP2 SUB SWAP1 REVERT JUMPDEST DUP1 PUSH1 0x9 ADD CALLER SWAP1 DUP1 PUSH1 0x1 DUP2 SLOAD ADD DUP1 DUP3 SSTORE DUP1 SWAP2 POP POP PUSH1 0x1 SWAP1 SUB SWAP1 PUSH1 0x0 MSTORE PUSH1 0x20 PUSH1 0x0 KECCAK256 ADD PUSH1 0x0 SWAP1 SWAP2 SWAP1 SWAP2 SWAP1 SWAP2 PUSH2 0x100 EXP DUP2 SLOAD DUP2 PUSH20 0xFFFFFFFFFFFFFFFFFFFFFFFFFFFFFFFFFFFFFFFF MUL NOT AND SWAP1 DUP4 PUSH20 0xFFFFFFFFFFFFFFFFFFFFFFFFFFFFFFFFFFFFFFFF AND MUL OR SWAP1 SSTORE POP DUP1 PUSH1 0x4 ADD PUSH1 0x0 DUP2 SLOAD DUP1 SWAP3 SWAP2 SWAP1 PUSH2 0x13E0 SWAP1 PUSH2 0x253E JUMP JUMPDEST SWAP2 SWAP1 POP SSTORE POP CALLVALUE DUP2 PUSH1 0x6 ADD PUSH1 0x0 DUP3 DUP3 SLOAD PUSH2 0x13F9 SWAP2 SWAP1 PUSH2 0x2185 JUMP JUMPDEST SWAP3 POP POP DUP2 SWAP1 SSTORE POP DUP3 PUSH32 0x87969BC7FAF902221A147B95CEBA76E011C5EFB0339A0A8EE7A2BB82D9CFBBD6 CALLER PUSH1 0x40 MLOAD PUSH2 0x1430 SWAP2 SWAP1 PUSH2 0x1DB5 JUMP JUMPDEST PUSH1 0x40 MLOAD DUP1 SWAP2 SUB SWAP1 LOG2 PUSH1 0x1 DUP2 PUSH1 0x9 ADD DUP1 SLOAD SWAP1 POP EQ ISZERO PUSH2 0x1476 JUMPI PUSH1 0x1 DUP2 PUSH1 0x8 ADD PUSH1 0x0 PUSH2 0x100 EXP DUP2 SLOAD DUP2 PUSH1 0xFF MUL NOT AND SWAP1 DUP4 PUSH1 0x4 DUP2 GT ISZERO PUSH2 0x1470 JUMPI PUSH2 0x146F PUSH2 0x1BDF JUMP JUMPDEST JUMPDEST MUL OR SWAP1 SSTORE POP JUMPDEST DUP1 PUSH1 0x5 ADD SLOAD DUP2 PUSH1 0x9 ADD DUP1 SLOAD SWAP1 POP EQ ISZERO PUSH2 0x14B7 JUMPI PUSH1 0x2 DUP2 PUSH1 0x8 ADD PUSH1 0x0 PUSH2 0x100 EXP DUP2 SLOAD DUP2 PUSH1 0xFF MUL NOT AND SWAP1 DUP4 PUSH1 0x4 DUP2 GT ISZERO PUSH2 0x14B1 JUMPI PUSH2 0x14B0 PUSH2 0x1BDF JUMP JUMPDEST JUMPDEST MUL OR SWAP1 SSTORE POP JUMPDEST POP POP PUSH2 0x14C1 PUSH2 0x1598 JUMP JUMPDEST POP JUMP JUMPDEST PUSH2 0x14CC PUSH2 0x15A2 JUMP JUMPDEST PUSH1 0x0 PUSH20 0xFFFFFFFFFFFFFFFFFFFFFFFFFFFFFFFFFFFFFFFF AND DUP2 PUSH20 0xFFFFFFFFFFFFFFFFFFFFFFFFFFFFFFFFFFFFFFFF AND EQ ISZERO PUSH2 0x153C JUMPI PUSH1 0x40 MLOAD PUSH32 0x8C379A000000000000000000000000000000000000000000000000000000000 DUP2 MSTORE PUSH1 0x4 ADD PUSH2 0x1533 SWAP1 PUSH2 0x2972 JUMP JUMPDEST PUSH1 0x40 MLOAD DUP1 SWAP2 SUB SWAP1 REVERT JUMPDEST PUSH2 0x1545 DUP2 PUSH2 0x1620 JUMP JUMPDEST POP JUMP JUMPDEST PUSH1 0x2 PUSH1 0x0 SLOAD EQ ISZERO PUSH2 0x158E JUMPI PUSH1 0x40 MLOAD PUSH32 0x8C379A000000000000000000000000000000000000000000000000000000000 DUP2 MSTORE PUSH1 0x4 ADD PUSH2 0x1585 SWAP1 PUSH2 0x29DE JUMP JUMPDEST PUSH1 0x40 MLOAD DUP1 SWAP2 SUB SWAP1 REVERT JUMPDEST PUSH1 0x2 PUSH1 0x0 DUP2 SWAP1 SSTORE POP JUMP JUMPDEST PUSH1 0x1 PUSH1 0x0 DUP2 SWAP1 SSTORE POP JUMP JUMPDEST PUSH2 0x15AA PUSH2 0x16E6 JUMP JUMPDEST PUSH20 0xFFFFFFFFFFFFFFFFFFFFFFFFFFFFFFFFFFFFFFFF AND PUSH2 0x15C8 PUSH2 0xE70 JUMP JUMPDEST PUSH20 0xFFFFFFFFFFFFFFFFFFFFFFFFFFFFFFFFFFFFFFFF AND EQ PUSH2 0x161E JUMPI PUSH1 0x40 MLOAD PUSH32 0x8C379A000000000000000000000000000000000000000000000000000000000 DUP2 MSTORE PUSH1 0x4 ADD PUSH2 0x1615 SWAP1 PUSH2 0x2A4A JUMP JUMPDEST PUSH1 0x40 MLOAD DUP1 SWAP2 SUB SWAP1 REVERT JUMPDEST JUMP JUMPDEST PUSH1 0x0 PUSH1 0x1 PUSH1 0x0 SWAP1 SLOAD SWAP1 PUSH2 0x100 EXP SWAP1 DIV PUSH20 0xFFFFFFFFFFFFFFFFFFFFFFFFFFFFFFFFFFFFFFFF AND SWAP1 POP DUP2 PUSH1 0x1 PUSH1 0x0 PUSH2 0x100 EXP DUP2 SLOAD DUP2 PUSH20 0xFFFFFFFFFFFFFFFFFFFFFFFFFFFFFFFFFFFFFFFF MUL NOT AND SWAP1 DUP4 PUSH20 0xFFFFFFFFFFFFFFFFFFFFFFFFFFFFFFFFFFFFFFFF AND MUL OR SWAP1 SSTORE POP DUP2 PUSH20 0xFFFFFFFFFFFFFFFFFFFFFFFFFFFFFFFFFFFFFFFF AND DUP2 PUSH20 0xFFFFFFFFFFFFFFFFFFFFFFFFFFFFFFFFFFFFFFFF AND PUSH32 0x8BE0079C531659141344CD1FD0A4F28419497F9722A3DAAFE3B4186F6B6457E0 PUSH1 0x40 MLOAD PUSH1 0x40 MLOAD DUP1 SWAP2 SUB SWAP1 LOG3 POP POP JUMP JUMPDEST PUSH1 0x0 CALLER SWAP1 POP SWAP1 JUMP JUMPDEST DUP3 DUP1 SLOAD PUSH2 0x16FA SWAP1 PUSH2 0x2646 JUMP JUMPDEST SWAP1 PUSH1 0x0 MSTORE PUSH1 0x20 PUSH1 0x0 KECCAK256 SWAP1 PUSH1 0x1F ADD PUSH1 0x20 SWAP1 DIV DUP2 ADD SWAP3 DUP3 PUSH2 0x171C JUMPI PUSH1 0x0 DUP6 SSTORE PUSH2 0x1763 JUMP JUMPDEST DUP3 PUSH1 0x1F LT PUSH2 0x1735 JUMPI DUP1 MLOAD PUSH1 0xFF NOT AND DUP4 DUP1 ADD OR DUP6 SSTORE PUSH2 0x1763 JUMP JUMPDEST DUP3 DUP1 ADD PUSH1 0x1 ADD DUP6 SSTORE DUP3 ISZERO PUSH2 0x1763 JUMPI SWAP2 DUP3 ADD JUMPDEST DUP3 DUP2 GT ISZERO PUSH2 0x1762 JUMPI DUP3 MLOAD DUP3 SSTORE SWAP2 PUSH1 0x20 ADD SWAP2 SWAP1 PUSH1 0x1 ADD SWAP1 PUSH2 0x1747 JUMP JUMPDEST JUMPDEST POP SWAP1 POP PUSH2 0x1770 SWAP2 SWAP1 PUSH2 0x1774 JUMP JUMPDEST POP SWAP1 JUMP JUMPDEST JUMPDEST DUP1 DUP3 GT ISZERO PUSH2 0x178D JUMPI PUSH1 0x0 DUP2 PUSH1 0x0 SWAP1 SSTORE POP PUSH1 0x1 ADD PUSH2 0x1775 JUMP JUMPDEST POP SWAP1 JUMP JUMPDEST PUSH1 0x0 DUP3 DUP3 MSTORE PUSH1 0x20 DUP3 ADD SWAP1 POP SWAP3 SWAP2 POP POP JUMP JUMPDEST PUSH32 0x446F206E6F742073656E6420455448206469726563746C790000000000000000 PUSH1 0x0 DUP3 ADD MSTORE POP JUMP JUMPDEST PUSH1 0x0 PUSH2 0x17D8 PUSH1 0x18 DUP4 PUSH2 0x1791 JUMP JUMPDEST SWAP2 POP PUSH2 0x17E3 DUP3 PUSH2 0x17A2 JUMP JUMPDEST PUSH1 0x20 DUP3 ADD SWAP1 POP SWAP2 SWAP1 POP JUMP JUMPDEST PUSH1 0x0 PUSH1 0x20 DUP3 ADD SWAP1 POP DUP2 DUP2 SUB PUSH1 0x0 DUP4 ADD MSTORE PUSH2 0x1807 DUP2 PUSH2 0x17CB JUMP JUMPDEST SWAP1 POP SWAP2 SWAP1 POP JUMP JUMPDEST PUSH1 0x0 PUSH1 0x40 MLOAD SWAP1 POP SWAP1 JUMP JUMPDEST PUSH1 0x0 DUP1 REVERT JUMPDEST PUSH1 0x0 DUP1 REVERT JUMPDEST PUSH1 0x0 DUP2 SWAP1 POP SWAP2 SWAP1 POP JUMP JUMPDEST PUSH2 0x1835 DUP2 PUSH2 0x1822 JUMP JUMPDEST DUP2 EQ PUSH2 0x1840 JUMPI PUSH1 0x0 DUP1 REVERT JUMPDEST POP JUMP JUMPDEST PUSH1 0x0 DUP2 CALLDATALOAD SWAP1 POP PUSH2 0x1852 DUP2 PUSH2 0x182C JUMP JUMPDEST SWAP3 SWAP2 POP POP JUMP JUMPDEST PUSH1 0x0 PUSH20 0xFFFFFFFFFFFFFFFFFFFFFFFFFFFFFFFFFFFFFFFF DUP3 AND SWAP1 POP SWAP2 SWAP1 POP JUMP JUMPDEST PUSH1 0x0 PUSH2 0x1883 DUP3 PUSH2 0x1858 JUMP JUMPDEST SWAP1 POP SWAP2 SWAP1 POP JUMP JUMPDEST PUSH2 0x1893 DUP2 PUSH2 0x1878 JUMP JUMPDEST DUP2 EQ PUSH2 0x189E JUMPI PUSH1 0x0 DUP1 REVERT JUMPDEST POP JUMP JUMPDEST PUSH1 0x0 DUP2 CALLDATALOAD SWAP1 POP PUSH2 0x18B0 DUP2 PUSH2 0x188A JUMP JUMPDEST SWAP3 SWAP2 POP POP JUMP JUMPDEST PUSH1 0x0 DUP1 PUSH1 0x40 DUP4 DUP6 SUB SLT ISZERO PUSH2 0x18CD JUMPI PUSH2 0x18CC PUSH2 0x1818 JUMP JUMPDEST JUMPDEST PUSH1 0x0 PUSH2 0x18DB DUP6 DUP3 DUP7 ADD PUSH2 0x1843 JUMP JUMPDEST SWAP3 POP POP PUSH1 0x20 PUSH2 0x18EC DUP6 DUP3 DUP7 ADD PUSH2 0x18A1 JUMP JUMPDEST SWAP2 POP POP SWAP3 POP SWAP3 SWAP1 POP JUMP JUMPDEST PUSH2 0x18FF DUP2 PUSH2 0x1822 JUMP JUMPDEST DUP3 MSTORE POP POP JUMP JUMPDEST PUSH1 0x0 PUSH1 0x20 DUP3 ADD SWAP1 POP PUSH2 0x191A PUSH1 0x0 DUP4 ADD DUP5 PUSH2 0x18F6 JUMP JUMPDEST SWAP3 SWAP2 POP POP JUMP JUMPDEST PUSH1 0x0 DUP1 REVERT JUMPDEST PUSH1 0x0 DUP1 REVERT JUMPDEST PUSH1 0x0 PUSH1 0x1F NOT PUSH1 0x1F DUP4 ADD AND SWAP1 POP SWAP2 SWAP1 POP JUMP JUMPDEST PUSH32 0x4E487B7100000000000000000000000000000000000000000000000000000000 PUSH1 0x0 MSTORE PUSH1 0x41 PUSH1 0x4 MSTORE PUSH1 0x24 PUSH1 0x0 REVERT JUMPDEST PUSH2 0x1973 DUP3 PUSH2 0x192A JUMP JUMPDEST DUP2 ADD DUP2 DUP2 LT PUSH8 0xFFFFFFFFFFFFFFFF DUP3 GT OR ISZERO PUSH2 0x1992 JUMPI PUSH2 0x1991 PUSH2 0x193B JUMP JUMPDEST JUMPDEST DUP1 PUSH1 0x40 MSTORE POP POP POP JUMP JUMPDEST PUSH1 0x0 PUSH2 0x19A5 PUSH2 0x180E JUMP JUMPDEST SWAP1 POP PUSH2 0x19B1 DUP3 DUP3 PUSH2 0x196A JUMP JUMPDEST SWAP2 SWAP1 POP JUMP JUMPDEST PUSH1 0x0 PUSH8 0xFFFFFFFFFFFFFFFF DUP3 GT ISZERO PUSH2 0x19D1 JUMPI PUSH2 0x19D0 PUSH2 0x193B JUMP JUMPDEST JUMPDEST PUSH2 0x19DA DUP3 PUSH2 0x192A JUMP JUMPDEST SWAP1 POP PUSH1 0x20 DUP2 ADD SWAP1 POP SWAP2 SWAP1 POP JUMP JUMPDEST DUP3 DUP2 DUP4 CALLDATACOPY PUSH1 0x0 DUP4 DUP4 ADD MSTORE POP POP POP JUMP JUMPDEST PUSH1 0x0 PUSH2 0x1A09 PUSH2 0x1A04 DUP5 PUSH2 0x19B6 JUMP JUMPDEST PUSH2 0x199B JUMP JUMPDEST SWAP1 POP DUP3 DUP2 MSTORE PUSH1 0x20 DUP2 ADD DUP5 DUP5 DUP5 ADD GT ISZERO PUSH2 0x1A25 JUMPI PUSH2 0x1A24 PUSH2 0x1925 JUMP JUMPDEST JUMPDEST PUSH2 0x1A30 DUP5 DUP3 DUP6 PUSH2 0x19E7 JUMP JUMPDEST POP SWAP4 SWAP3 POP POP POP JUMP JUMPDEST PUSH1 0x0 DUP3 PUSH1 0x1F DUP4 ADD SLT PUSH2 0x1A4D JUMPI PUSH2 0x1A4C PUSH2 0x1920 JUMP JUMPDEST JUMPDEST DUP2 CALLDATALOAD PUSH2 0x1A5D DUP5 DUP3 PUSH1 0x20 DUP7 ADD PUSH2 0x19F6 JUMP JUMPDEST SWAP2 POP POP SWAP3 SWAP2 POP POP JUMP JUMPDEST PUSH1 0x0 DUP1 PUSH1 0x0 DUP1 PUSH1 0x80 DUP6 DUP8 SUB SLT ISZERO PUSH2 0x1A80 JUMPI PUSH2 0x1A7F PUSH2 0x1818 JUMP JUMPDEST JUMPDEST PUSH1 0x0 DUP6 ADD CALLDATALOAD PUSH8 0xFFFFFFFFFFFFFFFF DUP2 GT ISZERO PUSH2 0x1A9E JUMPI PUSH2 0x1A9D PUSH2 0x181D JUMP JUMPDEST JUMPDEST PUSH2 0x1AAA DUP8 DUP3 DUP9 ADD PUSH2 0x1A38 JUMP JUMPDEST SWAP5 POP POP PUSH1 0x20 DUP6 ADD CALLDATALOAD PUSH8 0xFFFFFFFFFFFFFFFF DUP2 GT ISZERO PUSH2 0x1ACB JUMPI PUSH2 0x1ACA PUSH2 0x181D JUMP JUMPDEST JUMPDEST PUSH2 0x1AD7 DUP8 DUP3 DUP9 ADD PUSH2 0x1A38 JUMP JUMPDEST SWAP4 POP POP PUSH1 0x40 PUSH2 0x1AE8 DUP8 DUP3 DUP9 ADD PUSH2 0x1843 JUMP JUMPDEST SWAP3 POP POP PUSH1 0x60 PUSH2 0x1AF9 DUP8 DUP3 DUP9 ADD PUSH2 0x1843 JUMP JUMPDEST SWAP2 POP POP SWAP3 SWAP6 SWAP2 SWAP5 POP SWAP3 POP JUMP JUMPDEST PUSH1 0x0 DUP2 ISZERO ISZERO SWAP1 POP SWAP2 SWAP1 POP JUMP JUMPDEST PUSH2 0x1B1A DUP2 PUSH2 0x1B05 JUMP JUMPDEST DUP3 MSTORE POP POP JUMP JUMPDEST PUSH1 0x0 PUSH1 0x20 DUP3 ADD SWAP1 POP PUSH2 0x1B35 PUSH1 0x0 DUP4 ADD DUP5 PUSH2 0x1B11 JUMP JUMPDEST SWAP3 SWAP2 POP POP JUMP JUMPDEST PUSH1 0x0 PUSH1 0x20 DUP3 DUP5 SUB SLT ISZERO PUSH2 0x1B51 JUMPI PUSH2 0x1B50 PUSH2 0x1818 JUMP JUMPDEST JUMPDEST PUSH1 0x0 PUSH2 0x1B5F DUP5 DUP3 DUP6 ADD PUSH2 0x1843 JUMP JUMPDEST SWAP2 POP POP SWAP3 SWAP2 POP POP JUMP JUMPDEST PUSH1 0x0 DUP2 MLOAD SWAP1 POP SWAP2 SWAP1 POP JUMP JUMPDEST PUSH1 0x0 JUMPDEST DUP4 DUP2 LT ISZERO PUSH2 0x1B91 JUMPI DUP1 DUP3 ADD MLOAD DUP2 DUP5 ADD MSTORE PUSH1 0x20 DUP2 ADD SWAP1 POP PUSH2 0x1B76 JUMP JUMPDEST DUP4 DUP2 GT ISZERO PUSH2 0x1BA0 JUMPI PUSH1 0x0 DUP5 DUP5 ADD MSTORE JUMPDEST POP POP POP POP JUMP JUMPDEST PUSH1 0x0 PUSH2 0x1BB1 DUP3 PUSH2 0x1B68 JUMP JUMPDEST PUSH2 0x1BBB DUP2 DUP6 PUSH2 0x1791 JUMP JUMPDEST SWAP4 POP PUSH2 0x1BCB DUP2 DUP6 PUSH1 0x20 DUP7 ADD PUSH2 0x1B73 JUMP JUMPDEST PUSH2 0x1BD4 DUP2 PUSH2 0x192A JUMP JUMPDEST DUP5 ADD SWAP2 POP POP SWAP3 SWAP2 POP POP JUMP JUMPDEST PUSH32 0x4E487B7100000000000000000000000000000000000000000000000000000000 PUSH1 0x0 MSTORE PUSH1 0x21 PUSH1 0x4 MSTORE PUSH1 0x24 PUSH1 0x0 REVERT JUMPDEST PUSH1 0x5 DUP2 LT PUSH2 0x1C1F JUMPI PUSH2 0x1C1E PUSH2 0x1BDF JUMP JUMPDEST JUMPDEST POP JUMP JUMPDEST PUSH1 0x0 DUP2 SWAP1 POP PUSH2 0x1C30 DUP3 PUSH2 0x1C0E JUMP JUMPDEST SWAP2 SWAP1 POP JUMP JUMPDEST PUSH1 0x0 PUSH2 0x1C40 DUP3 PUSH2 0x1C22 JUMP JUMPDEST SWAP1 POP SWAP2 SWAP1 POP JUMP JUMPDEST PUSH2 0x1C50 DUP2 PUSH2 0x1C35 JUMP JUMPDEST DUP3 MSTORE POP POP JUMP JUMPDEST PUSH1 0x2 DUP2 LT PUSH2 0x1C67 JUMPI PUSH2 0x1C66 PUSH2 0x1BDF JUMP JUMPDEST JUMPDEST POP JUMP JUMPDEST PUSH1 0x0 DUP2 SWAP1 POP PUSH2 0x1C78 DUP3 PUSH2 0x1C56 JUMP JUMPDEST SWAP2 SWAP1 POP JUMP JUMPDEST PUSH1 0x0 PUSH2 0x1C88 DUP3 PUSH2 0x1C6A JUMP JUMPDEST SWAP1 POP SWAP2 SWAP1 POP JUMP JUMPDEST PUSH2 0x1C98 DUP2 PUSH2 0x1C7D JUMP JUMPDEST DUP3 MSTORE POP POP JUMP JUMPDEST PUSH2 0x1CA7 DUP2 PUSH2 0x1878 JUMP JUMPDEST DUP3 MSTORE POP POP JUMP JUMPDEST PUSH1 0x0 PUSH2 0x180 DUP3 ADD SWAP1 POP PUSH2 0x1CC3 PUSH1 0x0 DUP4 ADD DUP16 PUSH2 0x18F6 JUMP JUMPDEST DUP2 DUP2 SUB PUSH1 0x20 DUP4 ADD MSTORE PUSH2 0x1CD5 DUP2 DUP15 PUSH2 0x1BA6 JUMP JUMPDEST SWAP1 POP DUP2 DUP2 SUB PUSH1 0x40 DUP4 ADD MSTORE PUSH2 0x1CE9 DUP2 DUP14 PUSH2 0x1BA6 JUMP JUMPDEST SWAP1 POP PUSH2 0x1CF8 PUSH1 0x60 DUP4 ADD DUP13 PUSH2 0x18F6 JUMP JUMPDEST PUSH2 0x1D05 PUSH1 0x80 DUP4 ADD DUP12 PUSH2 0x18F6 JUMP JUMPDEST PUSH2 0x1D12 PUSH1 0xA0 DUP4 ADD DUP11 PUSH2 0x18F6 JUMP JUMPDEST PUSH2 0x1D1F PUSH1 0xC0 DUP4 ADD DUP10 PUSH2 0x18F6 JUMP JUMPDEST PUSH2 0x1D2C PUSH1 0xE0 DUP4 ADD DUP9 PUSH2 0x18F6 JUMP JUMPDEST PUSH2 0x1D3A PUSH2 0x100 DUP4 ADD DUP8 PUSH2 0x1C47 JUMP JUMPDEST PUSH2 0x1D48 PUSH2 0x120 DUP4 ADD DUP7 PUSH2 0x1C8F JUMP JUMPDEST PUSH2 0x1D56 PUSH2 0x140 DUP4 ADD DUP6 PUSH2 0x1C9E JUMP JUMPDEST PUSH2 0x1D64 PUSH2 0x160 DUP4 ADD DUP5 PUSH2 0x1C9E JUMP JUMPDEST SWAP14 SWAP13 POP POP POP POP POP POP POP POP POP POP POP POP POP JUMP JUMPDEST PUSH1 0x0 DUP1 PUSH1 0x40 DUP4 DUP6 SUB SLT ISZERO PUSH2 0x1D8C JUMPI PUSH2 0x1D8B PUSH2 0x1818 JUMP JUMPDEST JUMPDEST PUSH1 0x0 PUSH2 0x1D9A DUP6 DUP3 DUP7 ADD PUSH2 0x1843 JUMP JUMPDEST SWAP3 POP POP PUSH1 0x20 PUSH2 0x1DAB DUP6 DUP3 DUP7 ADD PUSH2 0x1843 JUMP JUMPDEST SWAP2 POP POP SWAP3 POP SWAP3 SWAP1 POP JUMP JUMPDEST PUSH1 0x0 PUSH1 0x20 DUP3 ADD SWAP1 POP PUSH2 0x1DCA PUSH1 0x0 DUP4 ADD DUP5 PUSH2 0x1C9E JUMP JUMPDEST SWAP3 SWAP2 POP POP JUMP JUMPDEST PUSH1 0x0 PUSH1 0x60 DUP3 ADD SWAP1 POP PUSH2 0x1DE5 PUSH1 0x0 DUP4 ADD DUP7 PUSH2 0x1C47 JUMP JUMPDEST PUSH2 0x1DF2 PUSH1 0x20 DUP4 ADD DUP6 PUSH2 0x1C9E JUMP JUMPDEST PUSH2 0x1DFF PUSH1 0x40 DUP4 ADD DUP5 PUSH2 0x18F6 JUMP JUMPDEST SWAP5 SWAP4 POP POP POP POP JUMP JUMPDEST PUSH1 0x0 DUP2 MLOAD SWAP1 POP SWAP2 SWAP1 POP JUMP JUMPDEST PUSH1 0x0 DUP3 DUP3 MSTORE PUSH1 0x20 DUP3 ADD SWAP1 POP SWAP3 SWAP2 POP POP JUMP JUMPDEST PUSH1 0x0 DUP2 SWAP1 POP PUSH1 0x20 DUP3 ADD SWAP1 POP SWAP2 SWAP1 POP JUMP JUMPDEST PUSH2 0x1E3C DUP2 PUSH2 0x1878 JUMP JUMPDEST DUP3 MSTORE POP POP JUMP JUMPDEST PUSH1 0x0 PUSH2 0x1E4E DUP4 DUP4 PUSH2 0x1E33 JUMP JUMPDEST PUSH1 0x20 DUP4 ADD SWAP1 POP SWAP3 SWAP2 POP POP JUMP JUMPDEST PUSH1 0x0 PUSH1 0x20 DUP3 ADD SWAP1 POP SWAP2 SWAP1 POP JUMP JUMPDEST PUSH1 0x0 PUSH2 0x1E72 DUP3 PUSH2 0x1E07 JUMP JUMPDEST PUSH2 0x1E7C DUP2 DUP6 PUSH2 0x1E12 JUMP JUMPDEST SWAP4 POP PUSH2 0x1E87 DUP4 PUSH2 0x1E23 JUMP JUMPDEST DUP1 PUSH1 0x0 JUMPDEST DUP4 DUP2 LT ISZERO PUSH2 0x1EB8 JUMPI DUP2 MLOAD PUSH2 0x1E9F DUP9 DUP3 PUSH2 0x1E42 JUMP JUMPDEST SWAP8 POP PUSH2 0x1EAA DUP4 PUSH2 0x1E5A JUMP JUMPDEST SWAP3 POP POP PUSH1 0x1 DUP2 ADD SWAP1 POP PUSH2 0x1E8B JUMP JUMPDEST POP DUP6 SWAP4 POP POP POP POP SWAP3 SWAP2 POP POP JUMP JUMPDEST PUSH1 0x0 PUSH1 0x20 DUP3 ADD SWAP1 POP DUP2 DUP2 SUB PUSH1 0x0 DUP4 ADD MSTORE PUSH2 0x1EDF DUP2 DUP5 PUSH2 0x1E67 JUMP JUMPDEST SWAP1 POP SWAP3 SWAP2 POP POP JUMP JUMPDEST PUSH1 0x0 PUSH1 0x20 DUP3 DUP5 SUB SLT ISZERO PUSH2 0x1EFD JUMPI PUSH2 0x1EFC PUSH2 0x1818 JUMP JUMPDEST JUMPDEST PUSH1 0x0 PUSH2 0x1F0B DUP5 DUP3 DUP6 ADD PUSH2 0x18A1 JUMP JUMPDEST SWAP2 POP POP SWAP3 SWAP2 POP POP JUMP JUMPDEST PUSH32 0x4C6F62627920646F6573206E6F74206578697374000000000000000000000000 PUSH1 0x0 DUP3 ADD MSTORE POP JUMP JUMPDEST PUSH1 0x0 PUSH2 0x1F4A PUSH1 0x14 DUP4 PUSH2 0x1791 JUMP JUMPDEST SWAP2 POP PUSH2 0x1F55 DUP3 PUSH2 0x1F14 JUMP JUMPDEST PUSH1 0x20 DUP3 ADD SWAP1 POP SWAP2 SWAP1 POP JUMP JUMPDEST PUSH1 0x0 PUSH1 0x20 DUP3 ADD SWAP1 POP DUP2 DUP2 SUB PUSH1 0x0 DUP4 ADD MSTORE PUSH2 0x1F79 DUP2 PUSH2 0x1F3D JUMP JUMPDEST SWAP1 POP SWAP2 SWAP1 POP JUMP JUMPDEST PUSH32 0x4F6E6C79206C6F6262792063726561746F722063616E20657865637574652074 PUSH1 0x0 DUP3 ADD MSTORE PUSH32 0x6869730000000000000000000000000000000000000000000000000000000000 PUSH1 0x20 DUP3 ADD MSTORE POP JUMP JUMPDEST PUSH1 0x0 PUSH2 0x1FDC PUSH1 0x23 DUP4 PUSH2 0x1791 JUMP JUMPDEST SWAP2 POP PUSH2 0x1FE7 DUP3 PUSH2 0x1F80 JUMP JUMPDEST PUSH1 0x40 DUP3 ADD SWAP1 POP SWAP2 SWAP1 POP JUMP JUMPDEST PUSH1 0x0 PUSH1 0x20 DUP3 ADD SWAP1 POP DUP2 DUP2 SUB PUSH1 0x0 DUP4 ADD MSTORE PUSH2 0x200B DUP2 PUSH2 0x1FCF JUMP JUMPDEST SWAP1 POP SWAP2 SWAP1 POP JUMP JUMPDEST PUSH32 0x4C6F626279206E6F7420696E2070726F67726573730000000000000000000000 PUSH1 0x0 DUP3 ADD MSTORE POP JUMP JUMPDEST PUSH1 0x0 PUSH2 0x2048 PUSH1 0x15 DUP4 PUSH2 0x1791 JUMP JUMPDEST SWAP2 POP PUSH2 0x2053 DUP3 PUSH2 0x2012 JUMP JUMPDEST PUSH1 0x20 DUP3 ADD SWAP1 POP SWAP2 SWAP1 POP JUMP JUMPDEST PUSH1 0x0 PUSH1 0x20 DUP3 ADD SWAP1 POP DUP2 DUP2 SUB PUSH1 0x0 DUP4 ADD MSTORE PUSH2 0x2077 DUP2 PUSH2 0x203B JUMP JUMPDEST SWAP1 POP SWAP2 SWAP1 POP JUMP JUMPDEST PUSH32 0x57696E6E6572206E6F7420696E2074686973206C6F6262790000000000000000 PUSH1 0x0 DUP3 ADD MSTORE POP JUMP JUMPDEST PUSH1 0x0 PUSH2 0x20B4 PUSH1 0x18 DUP4 PUSH2 0x1791 JUMP JUMPDEST SWAP2 POP PUSH2 0x20BF DUP3 PUSH2 0x207E JUMP JUMPDEST PUSH1 0x20 DUP3 ADD SWAP1 POP SWAP2 SWAP1 POP JUMP JUMPDEST PUSH1 0x0 PUSH1 0x20 DUP3 ADD SWAP1 POP DUP2 DUP2 SUB PUSH1 0x0 DUP4 ADD MSTORE PUSH2 0x20E3 DUP2 PUSH2 0x20A7 JUMP JUMPDEST SWAP1 POP SWAP2 SWAP1 POP JUMP JUMPDEST PUSH32 0x416C726561647920646973747269627574656400000000000000000000000000 PUSH1 0x0 DUP3 ADD MSTORE POP JUMP JUMPDEST PUSH1 0x0 PUSH2 0x2120 PUSH1 0x13 DUP4 PUSH2 0x1791 JUMP JUMPDEST SWAP2 POP PUSH2 0x212B DUP3 PUSH2 0x20EA JUMP JUMPDEST PUSH1 0x20 DUP3 ADD SWAP1 POP SWAP2 SWAP1 POP JUMP JUMPDEST PUSH1 0x0 PUSH1 0x20 DUP3 ADD SWAP1 POP DUP2 DUP2 SUB PUSH1 0x0 DUP4 ADD MSTORE PUSH2 0x214F DUP2 PUSH2 0x2113 JUMP JUMPDEST SWAP1 POP SWAP2 SWAP1 POP JUMP JUMPDEST PUSH32 0x4E487B7100000000000000000000000000000000000000000000000000000000 PUSH1 0x0 MSTORE PUSH1 0x11 PUSH1 0x4 MSTORE PUSH1 0x24 PUSH1 0x0 REVERT JUMPDEST PUSH1 0x0 PUSH2 0x2190 DUP3 PUSH2 0x1822 JUMP JUMPDEST SWAP2 POP PUSH2 0x219B DUP4 PUSH2 0x1822 JUMP JUMPDEST SWAP3 POP DUP3 PUSH32 0xFFFFFFFFFFFFFFFFFFFFFFFFFFFFFFFFFFFFFFFFFFFFFFFFFFFFFFFFFFFFFFFF SUB DUP3 GT ISZERO PUSH2 0x21D0 JUMPI PUSH2 0x21CF PUSH2 0x2156 JUMP JUMPDEST JUMPDEST DUP3 DUP3 ADD SWAP1 POP SWAP3 SWAP2 POP POP JUMP JUMPDEST PUSH32 0x4C6F626279206E6F742065787069726564207965740000000000000000000000 PUSH1 0x0 DUP3 ADD MSTORE POP JUMP JUMPDEST PUSH1 0x0 PUSH2 0x2211 PUSH1 0x15 DUP4 PUSH2 0x1791 JUMP JUMPDEST SWAP2 POP PUSH2 0x221C DUP3 PUSH2 0x21DB JUMP JUMPDEST PUSH1 0x20 DUP3 ADD SWAP1 POP SWAP2 SWAP1 POP JUMP JUMPDEST PUSH1 0x0 PUSH1 0x20 DUP3 ADD SWAP1 POP DUP2 DUP2 SUB PUSH1 0x0 DUP4 ADD MSTORE PUSH2 0x2240 DUP2 PUSH2 0x2204 JUMP JUMPDEST SWAP1 POP SWAP2 SWAP1 POP JUMP JUMPDEST PUSH32 0x4E6F207072697A6520746F206469737472696275746500000000000000000000 PUSH1 0x0 DUP3 ADD MSTORE POP JUMP JUMPDEST PUSH1 0x0 PUSH2 0x227D PUSH1 0x16 DUP4 PUSH2 0x1791 JUMP JUMPDEST SWAP2 POP PUSH2 0x2288 DUP3 PUSH2 0x2247 JUMP JUMPDEST PUSH1 0x20 DUP3 ADD SWAP1 POP SWAP2 SWAP1 POP JUMP JUMPDEST PUSH1 0x0 PUSH1 0x20 DUP3 ADD SWAP1 POP DUP2 DUP2 SUB PUSH1 0x0 DUP4 ADD MSTORE PUSH2 0x22AC DUP2 PUSH2 0x2270 JUMP JUMPDEST SWAP1 POP SWAP2 SWAP1 POP JUMP JUMPDEST PUSH1 0x0 DUP2 SWAP1 POP SWAP3 SWAP2 POP POP JUMP JUMPDEST POP JUMP JUMPDEST PUSH1 0x0 PUSH2 0x22CE PUSH1 0x0 DUP4 PUSH2 0x22B3 JUMP JUMPDEST SWAP2 POP PUSH2 0x22D9 DUP3 PUSH2 0x22BE JUMP JUMPDEST PUSH1 0x0 DUP3 ADD SWAP1 POP SWAP2 SWAP1 POP JUMP JUMPDEST PUSH1 0x0 PUSH2 0x22EF DUP3 PUSH2 0x22C1 JUMP JUMPDEST SWAP2 POP DUP2 SWAP1 POP SWAP2 SWAP1 POP JUMP JUMPDEST PUSH32 0x5072697A65207472616E73666572206661696C65640000000000000000000000 PUSH1 0x0 DUP3 ADD MSTORE POP JUMP JUMPDEST PUSH1 0x0 PUSH2 0x232F PUSH1 0x15 DUP4 PUSH2 0x1791 JUMP JUMPDEST SWAP2 POP PUSH2 0x233A DUP3 PUSH2 0x22F9 JUMP JUMPDEST PUSH1 0x20 DUP3 ADD SWAP1 POP SWAP2 SWAP1 POP JUMP JUMPDEST PUSH1 0x0 PUSH1 0x20 DUP3 ADD SWAP1 POP DUP2 DUP2 SUB PUSH1 0x0 DUP4 ADD MSTORE PUSH2 0x235E DUP2 PUSH2 0x2322 JUMP JUMPDEST SWAP1 POP SWAP2 SWAP1 POP JUMP JUMPDEST PUSH1 0x0 PUSH1 0x40 DUP3 ADD SWAP1 POP PUSH2 0x237A PUSH1 0x0 DUP4 ADD DUP6 PUSH2 0x1C9E JUMP JUMPDEST PUSH2 0x2387 PUSH1 0x20 DUP4 ADD DUP5 PUSH2 0x18F6 JUMP JUMPDEST SWAP4 SWAP3 POP POP POP JUMP JUMPDEST PUSH32 0x4C6F626279206E616D652063616E6E6F7420626520656D707479000000000000 PUSH1 0x0 DUP3 ADD MSTORE POP JUMP JUMPDEST PUSH1 0x0 PUSH2 0x23C4 PUSH1 0x1A DUP4 PUSH2 0x1791 JUMP JUMPDEST SWAP2 POP PUSH2 0x23CF DUP3 PUSH2 0x238E JUMP JUMPDEST PUSH1 0x20 DUP3 ADD SWAP1 POP SWAP2 SWAP1 POP JUMP JUMPDEST PUSH1 0x0 PUSH1 0x20 DUP3 ADD SWAP1 POP DUP2 DUP2 SUB PUSH1 0x0 DUP4 ADD MSTORE PUSH2 0x23F3 DUP2 PUSH2 0x23B7 JUMP JUMPDEST SWAP1 POP SWAP2 SWAP1 POP JUMP JUMPDEST PUSH32 0x43617465676F72792063616E6E6F7420626520656D7074790000000000000000 PUSH1 0x0 DUP3 ADD MSTORE POP JUMP JUMPDEST PUSH1 0x0 PUSH2 0x2430 PUSH1 0x18 DUP4 PUSH2 0x1791 JUMP JUMPDEST SWAP2 POP PUSH2 0x243B DUP3 PUSH2 0x23FA JUMP JUMPDEST PUSH1 0x20 DUP3 ADD SWAP1 POP SWAP2 SWAP1 POP JUMP JUMPDEST PUSH1 0x0 PUSH1 0x20 DUP3 ADD SWAP1 POP DUP2 DUP2 SUB PUSH1 0x0 DUP4 ADD MSTORE PUSH2 0x245F DUP2 PUSH2 0x2423 JUMP JUMPDEST SWAP1 POP SWAP2 SWAP1 POP JUMP JUMPDEST PUSH32 0x456E74727920666565206D7573742062652067726561746572207468616E2030 PUSH1 0x0 DUP3 ADD MSTORE POP JUMP JUMPDEST PUSH1 0x0 PUSH2 0x249C PUSH1 0x20 DUP4 PUSH2 0x1791 JUMP JUMPDEST SWAP2 POP PUSH2 0x24A7 DUP3 PUSH2 0x2466 JUMP JUMPDEST PUSH1 0x20 DUP3 ADD SWAP1 POP SWAP2 SWAP1 POP JUMP JUMPDEST PUSH1 0x0 PUSH1 0x20 DUP3 ADD SWAP1 POP DUP2 DUP2 SUB PUSH1 0x0 DUP4 ADD MSTORE PUSH2 0x24CB DUP2 PUSH2 0x248F JUMP JUMPDEST SWAP1 POP SWAP2 SWAP1 POP JUMP JUMPDEST PUSH32 0x496E76616C6964206D617820706C617965727300000000000000000000000000 PUSH1 0x0 DUP3 ADD MSTORE POP JUMP JUMPDEST PUSH1 0x0 PUSH2 0x2508 PUSH1 0x13 DUP4 PUSH2 0x1791 JUMP JUMPDEST SWAP2 POP PUSH2 0x2513 DUP3 PUSH2 0x24D2 JUMP JUMPDEST PUSH1 0x20 DUP3 ADD SWAP1 POP SWAP2 SWAP1 POP JUMP JUMPDEST PUSH1 0x0 PUSH1 0x20 DUP3 ADD SWAP1 POP DUP2 DUP2 SUB PUSH1 0x0 DUP4 ADD MSTORE PUSH2 0x2537 DUP2 PUSH2 0x24FB JUMP JUMPDEST SWAP1 POP SWAP2 SWAP1 POP JUMP JUMPDEST PUSH1 0x0 PUSH2 0x2549 DUP3 PUSH2 0x1822 JUMP JUMPDEST SWAP2 POP PUSH32 0xFFFFFFFFFFFFFFFFFFFFFFFFFFFFFFFFFFFFFFFFFFFFFFFFFFFFFFFFFFFFFFFF DUP3 EQ ISZERO PUSH2 0x257C JUMPI PUSH2 0x257B PUSH2 0x2156 JUMP JUMPDEST JUMPDEST PUSH1 0x1 DUP3 ADD SWAP1 POP SWAP2 SWAP1 POP JUMP JUMPDEST PUSH1 0x0 PUSH1 0xA0 DUP3 ADD SWAP1 POP DUP2 DUP2 SUB PUSH1 0x0 DUP4 ADD MSTORE PUSH2 0x25A1 DUP2 DUP9 PUSH2 0x1BA6 JUMP JUMPDEST SWAP1 POP DUP2 DUP2 SUB PUSH1 0x20 DUP4 ADD MSTORE PUSH2 0x25B5 DUP2 DUP8 PUSH2 0x1BA6 JUMP JUMPDEST SWAP1 POP PUSH2 0x25C4 PUSH1 0x40 DUP4 ADD DUP7 PUSH2 0x18F6 JUMP JUMPDEST PUSH2 0x25D1 PUSH1 0x60 DUP4 ADD DUP6 PUSH2 0x18F6 JUMP JUMPDEST PUSH2 0x25DE PUSH1 0x80 DUP4 ADD DUP5 PUSH2 0x1C9E JUMP JUMPDEST SWAP7 SWAP6 POP POP POP POP POP POP JUMP JUMPDEST PUSH32 0x4E487B7100000000000000000000000000000000000000000000000000000000 PUSH1 0x0 MSTORE PUSH1 0x32 PUSH1 0x4 MSTORE PUSH1 0x24 PUSH1 0x0 REVERT JUMPDEST PUSH32 0x4E487B7100000000000000000000000000000000000000000000000000000000 PUSH1 0x0 MSTORE PUSH1 0x22 PUSH1 0x4 MSTORE PUSH1 0x24 PUSH1 0x0 REVERT JUMPDEST PUSH1 0x0 PUSH1 0x2 DUP3 DIV SWAP1 POP PUSH1 0x1 DUP3 AND DUP1 PUSH2 0x265E JUMPI PUSH1 0x7F DUP3 AND SWAP2 POP JUMPDEST PUSH1 0x20 DUP3 LT DUP2 EQ ISZERO PUSH2 0x2672 JUMPI PUSH2 0x2671 PUSH2 0x2617 JUMP JUMPDEST JUMPDEST POP SWAP2 SWAP1 POP JUMP JUMPDEST PUSH32 0x526573756C7473206E6F7420617661696C61626C652079657400000000000000 PUSH1 0x0 DUP3 ADD MSTORE POP JUMP JUMPDEST PUSH1 0x0 PUSH2 0x26AE PUSH1 0x19 DUP4 PUSH2 0x1791 JUMP JUMPDEST SWAP2 POP PUSH2 0x26B9 DUP3 PUSH2 0x2678 JUMP JUMPDEST PUSH1 0x20 DUP3 ADD SWAP1 POP SWAP2 SWAP1 POP JUMP JUMPDEST PUSH1 0x0 PUSH1 0x20 DUP3 ADD SWAP1 POP DUP2 DUP2 SUB PUSH1 0x0 DUP4 ADD MSTORE PUSH2 0x26DD DUP2 PUSH2 0x26A1 JUMP JUMPDEST SWAP1 POP SWAP2 SWAP1 POP JUMP JUMPDEST PUSH32 0x4C6F626279206E6F74206F70656E000000000000000000000000000000000000 PUSH1 0x0 DUP3 ADD MSTORE POP JUMP JUMPDEST PUSH1 0x0 PUSH2 0x271A PUSH1 0xE DUP4 PUSH2 0x1791 JUMP JUMPDEST SWAP2 POP PUSH2 0x2725 DUP3 PUSH2 0x26E4 JUMP JUMPDEST PUSH1 0x20 DUP3 ADD SWAP1 POP SWAP2 SWAP1 POP JUMP JUMPDEST PUSH1 0x0 PUSH1 0x20 DUP3 ADD SWAP1 POP DUP2 DUP2 SUB PUSH1 0x0 DUP4 ADD MSTORE PUSH2 0x2749 DUP2 PUSH2 0x270D JUMP JUMPDEST SWAP1 POP SWAP2 SWAP1 POP JUMP JUMPDEST PUSH32 0x496E636F727265637420656E7472792066656500000000000000000000000000 PUSH1 0x0 DUP3 ADD MSTORE POP JUMP JUMPDEST PUSH1 0x0 PUSH2 0x2786 PUSH1 0x13 DUP4 PUSH2 0x1791 JUMP JUMPDEST SWAP2 POP PUSH2 0x2791 DUP3 PUSH2 0x2750 JUMP JUMPDEST PUSH1 0x20 DUP3 ADD SWAP1 POP SWAP2 SWAP1 POP JUMP JUMPDEST PUSH1 0x0 PUSH1 0x20 DUP3 ADD SWAP1 POP DUP2 DUP2 SUB PUSH1 0x0 DUP4 ADD MSTORE PUSH2 0x27B5 DUP2 PUSH2 0x2779 JUMP JUMPDEST SWAP1 POP SWAP2 SWAP1 POP JUMP JUMPDEST PUSH32 0x4C6F6262792066756C6C00000000000000000000000000000000000000000000 PUSH1 0x0 DUP3 ADD MSTORE POP JUMP JUMPDEST PUSH1 0x0 PUSH2 0x27F2 PUSH1 0xA DUP4 PUSH2 0x1791 JUMP JUMPDEST SWAP2 POP PUSH2 0x27FD DUP3 PUSH2 0x27BC JUMP JUMPDEST PUSH1 0x20 DUP3 ADD SWAP1 POP SWAP2 SWAP1 POP JUMP JUMPDEST PUSH1 0x0 PUSH1 0x20 DUP3 ADD SWAP1 POP DUP2 DUP2 SUB PUSH1 0x0 DUP4 ADD MSTORE PUSH2 0x2821 DUP2 PUSH2 0x27E5 JUMP JUMPDEST SWAP1 POP SWAP2 SWAP1 POP JUMP JUMPDEST PUSH32 0x4C6F626279206578706972656400000000000000000000000000000000000000 PUSH1 0x0 DUP3 ADD MSTORE POP JUMP JUMPDEST PUSH1 0x0 PUSH2 0x285E PUSH1 0xD DUP4 PUSH2 0x1791 JUMP JUMPDEST SWAP2 POP PUSH2 0x2869 DUP3 PUSH2 0x2828 JUMP JUMPDEST PUSH1 0x20 DUP3 ADD SWAP1 POP SWAP2 SWAP1 POP JUMP JUMPDEST PUSH1 0x0 PUSH1 0x20 DUP3 ADD SWAP1 POP DUP2 DUP2 SUB PUSH1 0x0 DUP4 ADD MSTORE PUSH2 0x288D DUP2 PUSH2 0x2851 JUMP JUMPDEST SWAP1 POP SWAP2 SWAP1 POP JUMP JUMPDEST PUSH32 0x43726561746F722063616E6E6F74206A6F696E2074686973206C6F6262790000 PUSH1 0x0 DUP3 ADD MSTORE POP JUMP JUMPDEST PUSH1 0x0 PUSH2 0x28CA PUSH1 0x1E DUP4 PUSH2 0x1791 JUMP JUMPDEST SWAP2 POP PUSH2 0x28D5 DUP3 PUSH2 0x2894 JUMP JUMPDEST PUSH1 0x20 DUP3 ADD SWAP1 POP SWAP2 SWAP1 POP JUMP JUMPDEST PUSH1 0x0 PUSH1 0x20 DUP3 ADD SWAP1 POP DUP2 DUP2 SUB PUSH1 0x0 DUP4 ADD MSTORE PUSH2 0x28F9 DUP2 PUSH2 0x28BD JUMP JUMPDEST SWAP1 POP SWAP2 SWAP1 POP JUMP JUMPDEST PUSH32 0x4F776E61626C653A206E6577206F776E657220697320746865207A65726F2061 PUSH1 0x0 DUP3 ADD MSTORE PUSH32 0x6464726573730000000000000000000000000000000000000000000000000000 PUSH1 0x20 DUP3 ADD MSTORE POP JUMP JUMPDEST PUSH1 0x0 PUSH2 0x295C PUSH1 0x26 DUP4 PUSH2 0x1791 JUMP JUMPDEST SWAP2 POP PUSH2 0x2967 DUP3 PUSH2 0x2900 JUMP JUMPDEST PUSH1 0x40 DUP3 ADD SWAP1 POP SWAP2 SWAP1 POP JUMP JUMPDEST PUSH1 0x0 PUSH1 0x20 DUP3 ADD SWAP1 POP DUP2 DUP2 SUB PUSH1 0x0 DUP4 ADD MSTORE PUSH2 0x298B DUP2 PUSH2 0x294F JUMP JUMPDEST SWAP1 POP SWAP2 SWAP1 POP JUMP JUMPDEST PUSH32 0x5265656E7472616E637947756172643A207265656E7472616E742063616C6C00 PUSH1 0x0 DUP3 ADD MSTORE POP JUMP JUMPDEST PUSH1 0x0 PUSH2 0x29C8 PUSH1 0x1F DUP4 PUSH2 0x1791 JUMP JUMPDEST SWAP2 POP PUSH2 0x29D3 DUP3 PUSH2 0x2992 JUMP JUMPDEST PUSH1 0x20 DUP3 ADD SWAP1 POP SWAP2 SWAP1 POP JUMP JUMPDEST PUSH1 0x0 PUSH1 0x20 DUP3 ADD SWAP1 POP DUP2 DUP2 SUB PUSH1 0x0 DUP4 ADD MSTORE PUSH2 0x29F7 DUP2 PUSH2 0x29BB JUMP JUMPDEST SWAP1 POP SWAP2 SWAP1 POP JUMP JUMPDEST PUSH32 0x4F776E61626C653A2063616C6C6572206973206E6F7420746865206F776E6572 PUSH1 0x0 DUP3 ADD MSTORE POP JUMP JUMPDEST PUSH1 0x0 PUSH2 0x2A34 PUSH1 0x20 DUP4 PUSH2 0x1791 JUMP JUMPDEST SWAP2 POP PUSH2 0x2A3F DUP3 PUSH2 0x29FE JUMP JUMPDEST PUSH1 0x20 DUP3 ADD SWAP1 POP SWAP2 SWAP1 POP JUMP JUMPDEST PUSH1 0x0 PUSH1 0x20 DUP3 ADD SWAP1 POP DUP2 DUP2 SUB PUSH1 0x0 DUP4 ADD MSTORE PUSH2 0x2A63 DUP2 PUSH2 0x2A27 JUMP JUMPDEST SWAP1 POP SWAP2 SWAP1 POP JUMP INVALID LOG2 PUSH5 0x6970667358 0x22 SLT KECCAK256 0xFB 0x2B SWAP15 SHL PUSH6 0xDA2FA27C69E CODECOPY SUB PUSH22 0x757C37C2545430871592938922DC6B13647364736F6C PUSH4 0x4300080A STOP CALLER "},"methodIdentifiers":{"LOBBY_TIMEOUT()":"a16353bf","createLobby(string,string,uint256,uint256)":"2a14ebb4","executeWinnerPayout(uint256,address)":"0cc46ba7","getLobbyResult(uint256)":"8e9be6f6","getPlayersInLobby(uint256)":"d85cdcb6","isPlayerInLobby(uint256,address)":"559ab8cc","joinLobby(uint256)":"e9173b3a","leaderboardSet(uint256)":"729f767d","lobbies(uint256)":"6e8fb4c6","lobbyLeaderboard(uint256,uint256)":"869bb51b","nextLobbyId()":"c309b1e3","owner()":"8da5cb5b","playerScores(uint256,address)":"00200e27","renounceOwnership()":"715018a6","transferOwnership(address)":"f2fde38b"}}}}}